{
  "_format": "hh-sol-artifact-1",
  "contractName": "MultipleAPIConsumer",
  "sourceName": "contracts/MultipleAPIConsumer.sol",
  "abi": [
    {
      "inputs": [],
      "stateMutability": "nonpayable",
      "type": "constructor"
    },
    {
      "anonymous": false,
      "inputs": [
        {
          "indexed": true,
          "internalType": "bytes32",
          "name": "id",
          "type": "bytes32"
        }
      ],
      "name": "ChainlinkCancelled",
      "type": "event"
    },
    {
      "anonymous": false,
      "inputs": [
        {
          "indexed": true,
          "internalType": "bytes32",
          "name": "id",
          "type": "bytes32"
        }
      ],
      "name": "ChainlinkFulfilled",
      "type": "event"
    },
    {
      "anonymous": false,
      "inputs": [
        {
          "indexed": true,
          "internalType": "bytes32",
          "name": "id",
          "type": "bytes32"
        }
      ],
      "name": "ChainlinkRequested",
      "type": "event"
    },
    {
      "anonymous": false,
      "inputs": [
        {
          "indexed": true,
          "internalType": "address",
          "name": "from",
          "type": "address"
        },
        {
          "indexed": true,
          "internalType": "address",
          "name": "to",
          "type": "address"
        }
      ],
      "name": "OwnershipTransferRequested",
      "type": "event"
    },
    {
      "anonymous": false,
      "inputs": [
        {
          "indexed": true,
          "internalType": "address",
          "name": "from",
          "type": "address"
        },
        {
          "indexed": true,
          "internalType": "address",
          "name": "to",
          "type": "address"
        }
      ],
      "name": "OwnershipTransferred",
      "type": "event"
    },
    {
      "anonymous": false,
      "inputs": [
        {
          "indexed": true,
          "internalType": "bytes32",
          "name": "requestId",
          "type": "bytes32"
        },
        {
          "indexed": false,
          "internalType": "uint256",
          "name": "btc",
          "type": "uint256"
        },
        {
          "indexed": false,
          "internalType": "uint256",
          "name": "usd",
          "type": "uint256"
        },
        {
          "indexed": false,
          "internalType": "uint256",
          "name": "eur",
          "type": "uint256"
        }
      ],
      "name": "RequestMultipleFulfilled",
      "type": "event"
    },
    {
      "inputs": [],
      "name": "acceptOwnership",
      "outputs": [],
      "stateMutability": "nonpayable",
      "type": "function"
    },
    {
      "inputs": [],
      "name": "btc",
      "outputs": [
        {
          "internalType": "uint256",
          "name": "",
          "type": "uint256"
        }
      ],
      "stateMutability": "view",
      "type": "function"
    },
    {
      "inputs": [],
      "name": "eur",
      "outputs": [
        {
          "internalType": "uint256",
          "name": "",
          "type": "uint256"
        }
      ],
      "stateMutability": "view",
      "type": "function"
    },
    {
      "inputs": [
        {
          "internalType": "bytes32",
          "name": "requestId",
          "type": "bytes32"
        },
        {
          "internalType": "uint256",
          "name": "btcResponse",
          "type": "uint256"
        },
        {
          "internalType": "uint256",
          "name": "usdResponse",
          "type": "uint256"
        },
        {
          "internalType": "uint256",
          "name": "eurResponse",
          "type": "uint256"
        }
      ],
      "name": "fulfillMultipleParameters",
      "outputs": [],
      "stateMutability": "nonpayable",
      "type": "function"
    },
    {
      "inputs": [],
      "name": "owner",
      "outputs": [
        {
          "internalType": "address",
          "name": "",
          "type": "address"
        }
      ],
      "stateMutability": "view",
      "type": "function"
    },
    {
      "inputs": [],
      "name": "requestMultipleParameters",
      "outputs": [],
      "stateMutability": "nonpayable",
      "type": "function"
    },
    {
      "inputs": [
        {
          "internalType": "address",
          "name": "to",
          "type": "address"
        }
      ],
      "name": "transferOwnership",
      "outputs": [],
      "stateMutability": "nonpayable",
      "type": "function"
    },
    {
      "inputs": [],
      "name": "usd",
      "outputs": [
        {
          "internalType": "uint256",
          "name": "",
          "type": "uint256"
        }
      ],
      "stateMutability": "view",
      "type": "function"
    },
    {
      "inputs": [],
      "name": "withdrawLink",
      "outputs": [],
      "stateMutability": "nonpayable",
      "type": "function"
    }
  ],
  "bytecode": "0x608060405260016004553480156200001657600080fd5b50338060008073ffffffffffffffffffffffffffffffffffffffff168273ffffffffffffffffffffffffffffffffffffffff1614156200008d576040517f08c379a00000000000000000000000000000000000000000000000000000000081526004016200008490620003d5565b60405180910390fd5b81600660006101000a81548173ffffffffffffffffffffffffffffffffffffffff021916908373ffffffffffffffffffffffffffffffffffffffff160217905550600073ffffffffffffffffffffffffffffffffffffffff168173ffffffffffffffffffffffffffffffffffffffff161462000115576200011481620001ba60201b60201c565b5b5050506200013d73326c977e6efc84e512bb9c30f76e30c160ed06fb620002ec60201b60201c565b6200016273cc79157eb46f5624204f47ab42b3906caa40eab76200033060201b60201c565b7f3533663937353539323063643435316138666534366635303837343638333935600881905550600a670de0b6b3a76400006001620001a2919062000430565b620001ae9190620004c0565b6009819055506200056a565b3373ffffffffffffffffffffffffffffffffffffffff168173ffffffffffffffffffffffffffffffffffffffff1614156200022c576040517f08c379a0000000000000000000000000000000000000000000000000000000008152600401620002239062000548565b60405180910390fd5b80600760006101000a81548173ffffffffffffffffffffffffffffffffffffffff021916908373ffffffffffffffffffffffffffffffffffffffff1602179055508073ffffffffffffffffffffffffffffffffffffffff16600660009054906101000a900473ffffffffffffffffffffffffffffffffffffffff1673ffffffffffffffffffffffffffffffffffffffff167fed8889f560326eb138920d842192f0eb3dd22b4f139c87a2c57538e05bae127860405160405180910390a350565b80600260006101000a81548173ffffffffffffffffffffffffffffffffffffffff021916908373ffffffffffffffffffffffffffffffffffffffff16021790555050565b80600360006101000a81548173ffffffffffffffffffffffffffffffffffffffff021916908373ffffffffffffffffffffffffffffffffffffffff16021790555050565b600082825260208201905092915050565b7f43616e6e6f7420736574206f776e657220746f207a65726f0000000000000000600082015250565b6000620003bd60188362000374565b9150620003ca8262000385565b602082019050919050565b60006020820190508181036000830152620003f081620003ae565b9050919050565b6000819050919050565b7f4e487b7100000000000000000000000000000000000000000000000000000000600052601160045260246000fd5b60006200043d82620003f7565b91506200044a83620003f7565b9250817fffffffffffffffffffffffffffffffffffffffffffffffffffffffffffffffff048311821515161562000486576200048562000401565b5b828202905092915050565b7f4e487b7100000000000000000000000000000000000000000000000000000000600052601260045260246000fd5b6000620004cd82620003f7565b9150620004da83620003f7565b925082620004ed57620004ec62000491565b5b828204905092915050565b7f43616e6e6f74207472616e7366657220746f2073656c66000000000000000000600082015250565b60006200053060178362000374565b91506200053d82620004f8565b602082019050919050565b60006020820190508181036000830152620005638162000521565b9050919050565b611fea806200057a6000396000f3fe608060405234801561001057600080fd5b50600436106100935760003560e01c80638dc654a2116100665780638dc654a2146100e8578063a28d57d8146100f2578063d63a6ccd14610110578063f2fde38b1461012e578063fda4417b1461014a57610093565b80634a3afb47146100985780637439ae59146100a257806379ba5097146100c05780638da5cb5b146100ca575b600080fd5b6100a0610166565b005b6100aa610431565b6040516100b791906113c0565b60405180910390f35b6100c8610437565b005b6100d26105ce565b6040516100df919061141c565b60405180910390f35b6100f06105f8565b005b6100fa610763565b60405161010791906113c0565b60405180910390f35b610118610769565b60405161012591906113c0565b60405180910390f35b61014860048036038101906101439190611468565b61076f565b005b610164600480360381019061015f91906114f7565b610783565b005b600061017c6008543063fda4417b60e01b6108ee565b90506101e06040518060400160405280600681526020017f75726c42544300000000000000000000000000000000000000000000000000008152506040518060600160405280603f8152602001611f37603f91398361091f9092919063ffffffff16565b61025f6040518060400160405280600781526020017f70617468425443000000000000000000000000000000000000000000000000008152506040518060400160405280600381526020017f42544300000000000000000000000000000000000000000000000000000000008152508361091f9092919063ffffffff16565b6102c16040518060400160405280600681526020017f75726c55534400000000000000000000000000000000000000000000000000008152506040518060600160405280603f8152602001611ef8603f91398361091f9092919063ffffffff16565b6103406040518060400160405280600781526020017f70617468555344000000000000000000000000000000000000000000000000008152506040518060400160405280600381526020017f55534400000000000000000000000000000000000000000000000000000000008152508361091f9092919063ffffffff16565b6103a26040518060400160405280600681526020017f75726c45555200000000000000000000000000000000000000000000000000008152506040518060600160405280603f8152602001611f76603f91398361091f9092919063ffffffff16565b6104216040518060400160405280600781526020017f70617468455552000000000000000000000000000000000000000000000000008152506040518060400160405280600381526020017f45555200000000000000000000000000000000000000000000000000000000008152508361091f9092919063ffffffff16565b61042d81600954610952565b5050565b600c5481565b600760009054906101000a900473ffffffffffffffffffffffffffffffffffffffff1673ffffffffffffffffffffffffffffffffffffffff163373ffffffffffffffffffffffffffffffffffffffff16146104c7576040517f08c379a00000000000000000000000000000000000000000000000000000000081526004016104be906115bb565b60405180910390fd5b6000600660009054906101000a900473ffffffffffffffffffffffffffffffffffffffff16905033600660006101000a81548173ffffffffffffffffffffffffffffffffffffffff021916908373ffffffffffffffffffffffffffffffffffffffff1602179055506000600760006101000a81548173ffffffffffffffffffffffffffffffffffffffff021916908373ffffffffffffffffffffffffffffffffffffffff1602179055503373ffffffffffffffffffffffffffffffffffffffff168173ffffffffffffffffffffffffffffffffffffffff167f8be0079c531659141344cd1fd0a4f28419497f9722a3daafe3b4186f6b6457e060405160405180910390a350565b6000600660009054906101000a900473ffffffffffffffffffffffffffffffffffffffff16905090565b610600610989565b600061060a610a1b565b90508073ffffffffffffffffffffffffffffffffffffffff1663a9059cbb338373ffffffffffffffffffffffffffffffffffffffff166370a08231306040518263ffffffff1660e01b8152600401610662919061141c565b60206040518083038186803b15801561067a57600080fd5b505afa15801561068e573d6000803e3d6000fd5b505050506040513d601f19601f820116820180604052508101906106b291906115f0565b6040518363ffffffff1660e01b81526004016106cf92919061161d565b602060405180830381600087803b1580156106e957600080fd5b505af11580156106fd573d6000803e3d6000fd5b505050506040513d601f19601f82011682018060405250810190610721919061167e565b610760576040517f08c379a0000000000000000000000000000000000000000000000000000000008152600401610757906116f7565b60405180910390fd5b50565b600a5481565b600b5481565b610777610989565b61078081610a45565b50565b836005600082815260200190815260200160002060009054906101000a900473ffffffffffffffffffffffffffffffffffffffff1673ffffffffffffffffffffffffffffffffffffffff163373ffffffffffffffffffffffffffffffffffffffff1614610825576040517f08c379a000000000000000000000000000000000000000000000000000000000815260040161081c90611789565b60405180910390fd5b6005600082815260200190815260200160002060006101000a81549073ffffffffffffffffffffffffffffffffffffffff0219169055807f7cc135e0cebb02c3480ae5d74d377283180a2601f8f644edf7987b009316c63a60405160405180910390a2847fd8422588c680817fe4971ef8a5fe6a6b5df0d7cd4537eabef7fb17750e4187a78585856040516108bc939291906117a9565b60405180910390a283600a81905550620186a0836108da919061183e565b600b8190555081600c819055505050505050565b6108f6611320565b6108fe611320565b61091585858584610b74909392919063ffffffff16565b9150509392505050565b610936828460800151610c2490919063ffffffff16565b61094d818460800151610c2490919063ffffffff16565b505050565b6000610981600360009054906101000a900473ffffffffffffffffffffffffffffffffffffffff168484610c49565b905092915050565b600660009054906101000a900473ffffffffffffffffffffffffffffffffffffffff1673ffffffffffffffffffffffffffffffffffffffff163373ffffffffffffffffffffffffffffffffffffffff1614610a19576040517f08c379a0000000000000000000000000000000000000000000000000000000008152600401610a10906118bb565b60405180910390fd5b565b6000600260009054906101000a900473ffffffffffffffffffffffffffffffffffffffff16905090565b3373ffffffffffffffffffffffffffffffffffffffff168173ffffffffffffffffffffffffffffffffffffffff161415610ab4576040517f08c379a0000000000000000000000000000000000000000000000000000000008152600401610aab90611927565b60405180910390fd5b80600760006101000a81548173ffffffffffffffffffffffffffffffffffffffff021916908373ffffffffffffffffffffffffffffffffffffffff1602179055508073ffffffffffffffffffffffffffffffffffffffff16600660009054906101000a900473ffffffffffffffffffffffffffffffffffffffff1673ffffffffffffffffffffffffffffffffffffffff167fed8889f560326eb138920d842192f0eb3dd22b4f139c87a2c57538e05bae127860405160405180910390a350565b610b7c611320565b610b8c8560800151610100610d15565b508385600001818152505082856020019073ffffffffffffffffffffffffffffffffffffffff16908173ffffffffffffffffffffffffffffffffffffffff16815250508185604001907bffffffffffffffffffffffffffffffffffffffffffffffffffffffff191690817bffffffffffffffffffffffffffffffffffffffffffffffffffffffff191681525050849050949350505050565b610c318260038351610d7f565b610c448183610f0490919063ffffffff16565b505050565b6000806004549050600181610c5e9190611947565b6004819055506000634042994660e01b60008087600001513089604001518760018c6080015160000151604051602401610c9f989796959493929190611a80565b604051602081830303815290604052907bffffffffffffffffffffffffffffffffffffffffffffffffffffffff19166020820180517bffffffffffffffffffffffffffffffffffffffffffffffffffffffff83818316178352505050509050610d0a86838684610f26565b925050509392505050565b610d1d61138d565b6000602083610d2c9190611b05565b14610d5857602082610d3e9190611b05565b6020610d4a9190611b36565b82610d559190611947565b91505b81836020018181525050604051808452600081528281016020016040525082905092915050565b60178167ffffffffffffffff1611610db657610db08160058460ff16901b60ff1617846110ca90919063ffffffff16565b50610eff565b60ff8167ffffffffffffffff1611610e0c57610de5601860058460ff16901b17846110ca90919063ffffffff16565b50610e068167ffffffffffffffff166001856110ea9092919063ffffffff16565b50610efe565b61ffff8167ffffffffffffffff1611610e6357610e3c601960058460ff16901b17846110ca90919063ffffffff16565b50610e5d8167ffffffffffffffff166002856110ea9092919063ffffffff16565b50610efd565b63ffffffff8167ffffffffffffffff1611610ebc57610e95601a60058460ff16901b17846110ca90919063ffffffff16565b50610eb68167ffffffffffffffff166004856110ea9092919063ffffffff16565b50610efc565b610ed9601b60058460ff16901b17846110ca90919063ffffffff16565b50610efa8167ffffffffffffffff166008856110ea9092919063ffffffff16565b505b5b5b5b505050565b610f0c61138d565b610f1e8384600001515184855161110c565b905092915050565b60003084604051602001610f3b929190611c23565b604051602081830303815290604052805190602001209050846005600083815260200190815260200160002060006101000a81548173ffffffffffffffffffffffffffffffffffffffff021916908373ffffffffffffffffffffffffffffffffffffffff160217905550807fb5e6e01e79f91267dc17b4e6314d5d4d03593d2ceee0fbb452b750bd70ea5af960405160405180910390a2600260009054906101000a900473ffffffffffffffffffffffffffffffffffffffff1673ffffffffffffffffffffffffffffffffffffffff16634000aea08685856040518463ffffffff1660e01b815260040161103193929190611c4f565b602060405180830381600087803b15801561104b57600080fd5b505af115801561105f573d6000803e3d6000fd5b505050506040513d601f19601f82011682018060405250810190611083919061167e565b6110c2576040517f08c379a00000000000000000000000000000000000000000000000000000000081526004016110b990611cff565b60405180910390fd5b949350505050565b6110d261138d565b6110e283846000015151846111fb565b905092915050565b6110f261138d565b611103848560000151518585611252565b90509392505050565b61111461138d565b825182111561112257600080fd5b846020015182856111339190611947565b111561116857611167856002611158886020015188876111539190611947565b6112e0565b6111629190611d1f565b6112fc565b5b6000808651805187602083010193508088870111156111875787860182525b60208701925050505b602084106111ce57805182526020826111a99190611947565b91506020816111b89190611947565b90506020846111c79190611b36565b9350611190565b60006001856020036101000a03905080198251168184511681811785525050508692505050949350505050565b61120361138d565b836020015183106112295761122884600286602001516112239190611d1f565b6112fc565b5b8351805160208583010184815381861415611245576001820183525b5050508390509392505050565b61125a61138d565b8460200151848361126b9190611947565b11156112935761129285600286856112839190611947565b61128d9190611d1f565b6112fc565b5b60006001836101006112a59190611eac565b6112af9190611b36565b905085518386820101858319825116178152815185880111156112d25784870182525b505085915050949350505050565b6000818311156112f2578290506112f6565b8190505b92915050565b60008260000151905061130f8383610d15565b5061131a8382610f04565b50505050565b6040518060a0016040528060008019168152602001600073ffffffffffffffffffffffffffffffffffffffff16815260200160007bffffffffffffffffffffffffffffffffffffffffffffffffffffffff191681526020016000815260200161138761138d565b81525090565b604051806040016040528060608152602001600081525090565b6000819050919050565b6113ba816113a7565b82525050565b60006020820190506113d560008301846113b1565b92915050565b600073ffffffffffffffffffffffffffffffffffffffff82169050919050565b6000611406826113db565b9050919050565b611416816113fb565b82525050565b6000602082019050611431600083018461140d565b92915050565b600080fd5b611445816113fb565b811461145057600080fd5b50565b6000813590506114628161143c565b92915050565b60006020828403121561147e5761147d611437565b5b600061148c84828501611453565b91505092915050565b6000819050919050565b6114a881611495565b81146114b357600080fd5b50565b6000813590506114c58161149f565b92915050565b6114d4816113a7565b81146114df57600080fd5b50565b6000813590506114f1816114cb565b92915050565b6000806000806080858703121561151157611510611437565b5b600061151f878288016114b6565b9450506020611530878288016114e2565b9350506040611541878288016114e2565b9250506060611552878288016114e2565b91505092959194509250565b600082825260208201905092915050565b7f4d7573742062652070726f706f736564206f776e657200000000000000000000600082015250565b60006115a560168361155e565b91506115b08261156f565b602082019050919050565b600060208201905081810360008301526115d481611598565b9050919050565b6000815190506115ea816114cb565b92915050565b60006020828403121561160657611605611437565b5b6000611614848285016115db565b91505092915050565b6000604082019050611632600083018561140d565b61163f60208301846113b1565b9392505050565b60008115159050919050565b61165b81611646565b811461166657600080fd5b50565b60008151905061167881611652565b92915050565b60006020828403121561169457611693611437565b5b60006116a284828501611669565b91505092915050565b7f556e61626c6520746f207472616e736665720000000000000000000000000000600082015250565b60006116e160128361155e565b91506116ec826116ab565b602082019050919050565b60006020820190508181036000830152611710816116d4565b9050919050565b7f536f75726365206d75737420626520746865206f7261636c65206f662074686560008201527f2072657175657374000000000000000000000000000000000000000000000000602082015250565b600061177360288361155e565b915061177e82611717565b604082019050919050565b600060208201905081810360008301526117a281611766565b9050919050565b60006060820190506117be60008301866113b1565b6117cb60208301856113b1565b6117d860408301846113b1565b949350505050565b7f4e487b7100000000000000000000000000000000000000000000000000000000600052601260045260246000fd5b7f4e487b7100000000000000000000000000000000000000000000000000000000600052601160045260246000fd5b6000611849826113a7565b9150611854836113a7565b925082611864576118636117e0565b5b828204905092915050565b7f4f6e6c792063616c6c61626c65206279206f776e657200000000000000000000600082015250565b60006118a560168361155e565b91506118b08261186f565b602082019050919050565b600060208201905081810360008301526118d481611898565b9050919050565b7f43616e6e6f74207472616e7366657220746f2073656c66000000000000000000600082015250565b600061191160178361155e565b915061191c826118db565b602082019050919050565b6000602082019050818103600083015261194081611904565b9050919050565b6000611952826113a7565b915061195d836113a7565b9250827fffffffffffffffffffffffffffffffffffffffffffffffffffffffffffffffff038211156119925761199161180f565b5b828201905092915050565b6119a681611495565b82525050565b60007fffffffff0000000000000000000000000000000000000000000000000000000082169050919050565b6119e1816119ac565b82525050565b600081519050919050565b600082825260208201905092915050565b60005b83811015611a21578082015181840152602081019050611a06565b83811115611a30576000848401525b50505050565b6000601f19601f8301169050919050565b6000611a52826119e7565b611a5c81856119f2565b9350611a6c818560208601611a03565b611a7581611a36565b840191505092915050565b600061010082019050611a96600083018b61140d565b611aa3602083018a6113b1565b611ab0604083018961199d565b611abd606083018861140d565b611aca60808301876119d8565b611ad760a08301866113b1565b611ae460c08301856113b1565b81810360e0830152611af68184611a47565b90509998505050505050505050565b6000611b10826113a7565b9150611b1b836113a7565b925082611b2b57611b2a6117e0565b5b828206905092915050565b6000611b41826113a7565b9150611b4c836113a7565b925082821015611b5f57611b5e61180f565b5b828203905092915050565b6000819050919050565b6000611b8f611b8a611b85846113db565b611b6a565b6113db565b9050919050565b6000611ba182611b74565b9050919050565b6000611bb382611b96565b9050919050565b60008160601b9050919050565b6000611bd282611bba565b9050919050565b6000611be482611bc7565b9050919050565b611bfc611bf782611ba8565b611bd9565b82525050565b6000819050919050565b611c1d611c18826113a7565b611c02565b82525050565b6000611c2f8285611beb565b601482019150611c3f8284611c0c565b6020820191508190509392505050565b6000606082019050611c64600083018661140d565b611c7160208301856113b1565b8181036040830152611c838184611a47565b9050949350505050565b7f756e61626c6520746f207472616e73666572416e6443616c6c20746f206f726160008201527f636c650000000000000000000000000000000000000000000000000000000000602082015250565b6000611ce960238361155e565b9150611cf482611c8d565b604082019050919050565b60006020820190508181036000830152611d1881611cdc565b9050919050565b6000611d2a826113a7565b9150611d35836113a7565b9250817fffffffffffffffffffffffffffffffffffffffffffffffffffffffffffffffff0483118215151615611d6e57611d6d61180f565b5b828202905092915050565b60008160011c9050919050565b6000808291508390505b6001851115611dd057808604811115611dac57611dab61180f565b5b6001851615611dbb5780820291505b8081029050611dc985611d79565b9450611d90565b94509492505050565b600082611de95760019050611ea5565b81611df75760009050611ea5565b8160018114611e0d5760028114611e1757611e46565b6001915050611ea5565b60ff841115611e2957611e2861180f565b5b8360020a915084821115611e4057611e3f61180f565b5b50611ea5565b5060208310610133831016604e8410600b8410161715611e7b5782820a905083811115611e7657611e7561180f565b5b611ea5565b611e888484846001611d86565b92509050818404811115611e9f57611e9e61180f565b5b81810290505b9392505050565b6000611eb7826113a7565b9150611ec2836113a7565b9250611eef7fffffffffffffffffffffffffffffffffffffffffffffffffffffffffffffffff8484611dd9565b90509291505056fe68747470733a2f2f6d696e2d6170692e63727970746f636f6d706172652e636f6d2f646174612f70726963653f6673796d3d455448267473796d733d55534468747470733a2f2f6d696e2d6170692e63727970746f636f6d706172652e636f6d2f646174612f70726963653f6673796d3d455448267473796d733d42544368747470733a2f2f6d696e2d6170692e63727970746f636f6d706172652e636f6d2f646174612f70726963653f6673796d3d455448267473796d733d455552a26469706673582212204cbec149c381b30bae57805569afa808107274fe0d8242d401025032db8bced764736f6c63430008090033",
  "linkReferences": {},
  "deployedLinkReferences": {}
}