{
  "_format": "hh-sol-artifact-1",
  "contractName": "APILargeResponse",
  "sourceName": "contracts/APILargeResponse.sol",
  "abi": [
    {
      "inputs": [],
      "stateMutability": "nonpayable",
      "type": "constructor"
    },
    {
      "anonymous": false,
      "inputs": [
        {
          "indexed": true,
          "internalType": "bytes32",
          "name": "id",
          "type": "bytes32"
        }
      ],
      "name": "ChainlinkCancelled",
      "type": "event"
    },
    {
      "anonymous": false,
      "inputs": [
        {
          "indexed": true,
          "internalType": "bytes32",
          "name": "id",
          "type": "bytes32"
        }
      ],
      "name": "ChainlinkFulfilled",
      "type": "event"
    },
    {
      "anonymous": false,
      "inputs": [
        {
          "indexed": true,
          "internalType": "bytes32",
          "name": "id",
          "type": "bytes32"
        }
      ],
      "name": "ChainlinkRequested",
      "type": "event"
    },
    {
      "anonymous": false,
      "inputs": [
        {
          "indexed": true,
          "internalType": "address",
          "name": "from",
          "type": "address"
        },
        {
          "indexed": true,
          "internalType": "address",
          "name": "to",
          "type": "address"
        }
      ],
      "name": "OwnershipTransferRequested",
      "type": "event"
    },
    {
      "anonymous": false,
      "inputs": [
        {
          "indexed": true,
          "internalType": "address",
          "name": "from",
          "type": "address"
        },
        {
          "indexed": true,
          "internalType": "address",
          "name": "to",
          "type": "address"
        }
      ],
      "name": "OwnershipTransferred",
      "type": "event"
    },
    {
      "anonymous": false,
      "inputs": [
        {
          "indexed": true,
          "internalType": "bytes32",
          "name": "requestId",
          "type": "bytes32"
        },
        {
          "indexed": true,
          "internalType": "bytes",
          "name": "data",
          "type": "bytes"
        }
      ],
      "name": "RequestFulfilled",
      "type": "event"
    },
    {
      "inputs": [],
      "name": "acceptOwnership",
      "outputs": [],
      "stateMutability": "nonpayable",
      "type": "function"
    },
    {
      "inputs": [],
      "name": "data",
      "outputs": [
        {
          "internalType": "bytes",
          "name": "",
          "type": "bytes"
        }
      ],
      "stateMutability": "view",
      "type": "function"
    },
    {
      "inputs": [
        {
          "internalType": "bytes32",
          "name": "requestId",
          "type": "bytes32"
        },
        {
          "internalType": "bytes",
          "name": "bytesData",
          "type": "bytes"
        }
      ],
      "name": "fulfillBytes",
      "outputs": [],
      "stateMutability": "nonpayable",
      "type": "function"
    },
    {
      "inputs": [],
      "name": "image_url",
      "outputs": [
        {
          "internalType": "string",
          "name": "",
          "type": "string"
        }
      ],
      "stateMutability": "view",
      "type": "function"
    },
    {
      "inputs": [],
      "name": "owner",
      "outputs": [
        {
          "internalType": "address",
          "name": "",
          "type": "address"
        }
      ],
      "stateMutability": "view",
      "type": "function"
    },
    {
      "inputs": [],
      "name": "requestBytes",
      "outputs": [],
      "stateMutability": "nonpayable",
      "type": "function"
    },
    {
      "inputs": [
        {
          "internalType": "address",
          "name": "to",
          "type": "address"
        }
      ],
      "name": "transferOwnership",
      "outputs": [],
      "stateMutability": "nonpayable",
      "type": "function"
    },
    {
      "inputs": [],
      "name": "withdrawLink",
      "outputs": [],
      "stateMutability": "nonpayable",
      "type": "function"
    }
  ],
  "bytecode": "0x608060405260016004553480156200001657600080fd5b50338060008073ffffffffffffffffffffffffffffffffffffffff168273ffffffffffffffffffffffffffffffffffffffff1614156200008d576040517f08c379a00000000000000000000000000000000000000000000000000000000081526004016200008490620003d5565b60405180910390fd5b81600660006101000a81548173ffffffffffffffffffffffffffffffffffffffff021916908373ffffffffffffffffffffffffffffffffffffffff160217905550600073ffffffffffffffffffffffffffffffffffffffff168173ffffffffffffffffffffffffffffffffffffffff161462000115576200011481620001ba60201b60201c565b5b5050506200013d73326c977e6efc84e512bb9c30f76e30c160ed06fb620002ec60201b60201c565b6200016273cc79157eb46f5624204f47ab42b3906caa40eab76200033060201b60201c565b7f3764613237303266333766643438653562316239613537313565333530396236600a81905550600a670de0b6b3a76400006001620001a2919062000430565b620001ae9190620004c0565b600b819055506200056a565b3373ffffffffffffffffffffffffffffffffffffffff168173ffffffffffffffffffffffffffffffffffffffff1614156200022c576040517f08c379a0000000000000000000000000000000000000000000000000000000008152600401620002239062000548565b60405180910390fd5b80600760006101000a81548173ffffffffffffffffffffffffffffffffffffffff021916908373ffffffffffffffffffffffffffffffffffffffff1602179055508073ffffffffffffffffffffffffffffffffffffffff16600660009054906101000a900473ffffffffffffffffffffffffffffffffffffffff1673ffffffffffffffffffffffffffffffffffffffff167fed8889f560326eb138920d842192f0eb3dd22b4f139c87a2c57538e05bae127860405160405180910390a350565b80600260006101000a81548173ffffffffffffffffffffffffffffffffffffffff021916908373ffffffffffffffffffffffffffffffffffffffff16021790555050565b80600360006101000a81548173ffffffffffffffffffffffffffffffffffffffff021916908373ffffffffffffffffffffffffffffffffffffffff16021790555050565b600082825260208201905092915050565b7f43616e6e6f7420736574206f776e657220746f207a65726f0000000000000000600082015250565b6000620003bd60188362000374565b9150620003ca8262000385565b602082019050919050565b60006020820190508181036000830152620003f081620003ae565b9050919050565b6000819050919050565b7f4e487b7100000000000000000000000000000000000000000000000000000000600052601160045260246000fd5b60006200043d82620003f7565b91506200044a83620003f7565b9250817fffffffffffffffffffffffffffffffffffffffffffffffffffffffffffffffff048311821515161562000486576200048562000401565b5b828202905092915050565b7f4e487b7100000000000000000000000000000000000000000000000000000000600052601260045260246000fd5b6000620004cd82620003f7565b9150620004da83620003f7565b925082620004ed57620004ec62000491565b5b828204905092915050565b7f43616e6e6f74207472616e7366657220746f2073656c66000000000000000000600082015250565b60006200053060178362000374565b91506200053d82620004f8565b602082019050919050565b60006020820190508181036000830152620005638162000521565b9050919050565b6121d0806200057a6000396000f3fe608060405234801561001057600080fd5b50600436106100885760003560e01c80638da5cb5b1161005b5780638da5cb5b146100dd5780638dc654a2146100fb578063c2fb852314610105578063f2fde38b1461012157610088565b806311411e8a1461008d57806373d4a13a1461009757806379ba5097146100b5578063824f4baf146100bf575b600080fd5b61009561013d565b005b61009f610246565b6040516100ac91906114a4565b60405180910390f35b6100bd6102d4565b005b6100c761046b565b6040516100d4919061151b565b60405180910390f35b6100e56104f9565b6040516100f2919061157e565b60405180910390f35b610103610523565b005b61011f600480360381019061011a9190611718565b61068e565b005b61013b600480360381019061013691906117a0565b61080e565b005b6000610153600a543063c2fb852360e01b610822565b90506101b76040518060400160405280600381526020017f67657400000000000000000000000000000000000000000000000000000000008152506040518060a001604052806062815260200161213960629139836108539092919063ffffffff16565b6102366040518060400160405280600481526020017f70617468000000000000000000000000000000000000000000000000000000008152506040518060400160405280600581526020017f696d616765000000000000000000000000000000000000000000000000000000815250836108539092919063ffffffff16565b61024281600b54610886565b5050565b60088054610253906117fc565b80601f016020809104026020016040519081016040528092919081815260200182805461027f906117fc565b80156102cc5780601f106102a1576101008083540402835291602001916102cc565b820191906000526020600020905b8154815290600101906020018083116102af57829003601f168201915b505050505081565b600760009054906101000a900473ffffffffffffffffffffffffffffffffffffffff1673ffffffffffffffffffffffffffffffffffffffff163373ffffffffffffffffffffffffffffffffffffffff1614610364576040517f08c379a000000000000000000000000000000000000000000000000000000000815260040161035b9061187a565b60405180910390fd5b6000600660009054906101000a900473ffffffffffffffffffffffffffffffffffffffff16905033600660006101000a81548173ffffffffffffffffffffffffffffffffffffffff021916908373ffffffffffffffffffffffffffffffffffffffff1602179055506000600760006101000a81548173ffffffffffffffffffffffffffffffffffffffff021916908373ffffffffffffffffffffffffffffffffffffffff1602179055503373ffffffffffffffffffffffffffffffffffffffff168173ffffffffffffffffffffffffffffffffffffffff167f8be0079c531659141344cd1fd0a4f28419497f9722a3daafe3b4186f6b6457e060405160405180910390a350565b60098054610478906117fc565b80601f01602080910402602001604051908101604052809291908181526020018280546104a4906117fc565b80156104f15780601f106104c6576101008083540402835291602001916104f1565b820191906000526020600020905b8154815290600101906020018083116104d457829003601f168201915b505050505081565b6000600660009054906101000a900473ffffffffffffffffffffffffffffffffffffffff16905090565b61052b6108bd565b600061053561094f565b90508073ffffffffffffffffffffffffffffffffffffffff1663a9059cbb338373ffffffffffffffffffffffffffffffffffffffff166370a08231306040518263ffffffff1660e01b815260040161058d919061157e565b60206040518083038186803b1580156105a557600080fd5b505afa1580156105b9573d6000803e3d6000fd5b505050506040513d601f19601f820116820180604052508101906105dd91906118d0565b6040518363ffffffff1660e01b81526004016105fa92919061190c565b602060405180830381600087803b15801561061457600080fd5b505af1158015610628573d6000803e3d6000fd5b505050506040513d601f19601f8201168201806040525081019061064c919061196d565b61068b576040517f08c379a0000000000000000000000000000000000000000000000000000000008152600401610682906119e6565b60405180910390fd5b50565b816005600082815260200190815260200160002060009054906101000a900473ffffffffffffffffffffffffffffffffffffffff1673ffffffffffffffffffffffffffffffffffffffff163373ffffffffffffffffffffffffffffffffffffffff1614610730576040517f08c379a000000000000000000000000000000000000000000000000000000000815260040161072790611a78565b60405180910390fd5b6005600082815260200190815260200160002060006101000a81549073ffffffffffffffffffffffffffffffffffffffff0219169055807f7cc135e0cebb02c3480ae5d74d377283180a2601f8f644edf7987b009316c63a60405160405180910390a2816040516107a19190611ad4565b6040518091039020837f1a111c5dcf9a71088bd5e1797fdfaf399fec2afbb24aca247e4e3e9f4b61df9160405160405180910390a381600890805190602001906107ec929190611254565b50600860099080546107fd906117fc565b6108089291906112da565b50505050565b6108166108bd565b61081f81610979565b50565b61082a611367565b610832611367565b61084985858584610aa8909392919063ffffffff16565b9150509392505050565b61086a828460800151610b5890919063ffffffff16565b610881818460800151610b5890919063ffffffff16565b505050565b60006108b5600360009054906101000a900473ffffffffffffffffffffffffffffffffffffffff168484610b7d565b905092915050565b600660009054906101000a900473ffffffffffffffffffffffffffffffffffffffff1673ffffffffffffffffffffffffffffffffffffffff163373ffffffffffffffffffffffffffffffffffffffff161461094d576040517f08c379a000000000000000000000000000000000000000000000000000000000815260040161094490611b37565b60405180910390fd5b565b6000600260009054906101000a900473ffffffffffffffffffffffffffffffffffffffff16905090565b3373ffffffffffffffffffffffffffffffffffffffff168173ffffffffffffffffffffffffffffffffffffffff1614156109e8576040517f08c379a00000000000000000000000000000000000000000000000000000000081526004016109df90611ba3565b60405180910390fd5b80600760006101000a81548173ffffffffffffffffffffffffffffffffffffffff021916908373ffffffffffffffffffffffffffffffffffffffff1602179055508073ffffffffffffffffffffffffffffffffffffffff16600660009054906101000a900473ffffffffffffffffffffffffffffffffffffffff1673ffffffffffffffffffffffffffffffffffffffff167fed8889f560326eb138920d842192f0eb3dd22b4f139c87a2c57538e05bae127860405160405180910390a350565b610ab0611367565b610ac08560800151610100610c49565b508385600001818152505082856020019073ffffffffffffffffffffffffffffffffffffffff16908173ffffffffffffffffffffffffffffffffffffffff16815250508185604001907bffffffffffffffffffffffffffffffffffffffffffffffffffffffff191690817bffffffffffffffffffffffffffffffffffffffffffffffffffffffff191681525050849050949350505050565b610b658260038351610cb3565b610b788183610e3890919063ffffffff16565b505050565b6000806004549050600181610b929190611bf2565b6004819055506000634042994660e01b60008087600001513089604001518760018c6080015160000151604051602401610bd3989796959493929190611c92565b604051602081830303815290604052907bffffffffffffffffffffffffffffffffffffffffffffffffffffffff19166020820180517bffffffffffffffffffffffffffffffffffffffffffffffffffffffff83818316178352505050509050610c3e86838684610e5a565b925050509392505050565b610c516113d4565b6000602083610c609190611d46565b14610c8c57602082610c729190611d46565b6020610c7e9190611d77565b82610c899190611bf2565b91505b81836020018181525050604051808452600081528281016020016040525082905092915050565b60178167ffffffffffffffff1611610cea57610ce48160058460ff16901b60ff161784610ffe90919063ffffffff16565b50610e33565b60ff8167ffffffffffffffff1611610d4057610d19601860058460ff16901b1784610ffe90919063ffffffff16565b50610d3a8167ffffffffffffffff1660018561101e9092919063ffffffff16565b50610e32565b61ffff8167ffffffffffffffff1611610d9757610d70601960058460ff16901b1784610ffe90919063ffffffff16565b50610d918167ffffffffffffffff1660028561101e9092919063ffffffff16565b50610e31565b63ffffffff8167ffffffffffffffff1611610df057610dc9601a60058460ff16901b1784610ffe90919063ffffffff16565b50610dea8167ffffffffffffffff1660048561101e9092919063ffffffff16565b50610e30565b610e0d601b60058460ff16901b1784610ffe90919063ffffffff16565b50610e2e8167ffffffffffffffff1660088561101e9092919063ffffffff16565b505b5b5b5b505050565b610e406113d4565b610e5283846000015151848551611040565b905092915050565b60003084604051602001610e6f929190611e64565b604051602081830303815290604052805190602001209050846005600083815260200190815260200160002060006101000a81548173ffffffffffffffffffffffffffffffffffffffff021916908373ffffffffffffffffffffffffffffffffffffffff160217905550807fb5e6e01e79f91267dc17b4e6314d5d4d03593d2ceee0fbb452b750bd70ea5af960405160405180910390a2600260009054906101000a900473ffffffffffffffffffffffffffffffffffffffff1673ffffffffffffffffffffffffffffffffffffffff16634000aea08685856040518463ffffffff1660e01b8152600401610f6593929190611e90565b602060405180830381600087803b158015610f7f57600080fd5b505af1158015610f93573d6000803e3d6000fd5b505050506040513d601f19601f82011682018060405250810190610fb7919061196d565b610ff6576040517f08c379a0000000000000000000000000000000000000000000000000000000008152600401610fed90611f40565b60405180910390fd5b949350505050565b6110066113d4565b611016838460000151518461112f565b905092915050565b6110266113d4565b611037848560000151518585611186565b90509392505050565b6110486113d4565b825182111561105657600080fd5b846020015182856110679190611bf2565b111561109c5761109b85600261108c886020015188876110879190611bf2565b611214565b6110969190611f60565b611230565b5b6000808651805187602083010193508088870111156110bb5787860182525b60208701925050505b6020841061110257805182526020826110dd9190611bf2565b91506020816110ec9190611bf2565b90506020846110fb9190611d77565b93506110c4565b60006001856020036101000a03905080198251168184511681811785525050508692505050949350505050565b6111376113d4565b8360200151831061115d5761115c84600286602001516111579190611f60565b611230565b5b8351805160208583010184815381861415611179576001820183525b5050508390509392505050565b61118e6113d4565b8460200151848361119f9190611bf2565b11156111c7576111c685600286856111b79190611bf2565b6111c19190611f60565b611230565b5b60006001836101006111d991906120ed565b6111e39190611d77565b905085518386820101858319825116178152815185880111156112065784870182525b505085915050949350505050565b6000818311156112265782905061122a565b8190505b92915050565b6000826000015190506112438383610c49565b5061124e8382610e38565b50505050565b828054611260906117fc565b90600052602060002090601f01602090048101928261128257600085556112c9565b82601f1061129b57805160ff19168380011785556112c9565b828001600101855582156112c9579182015b828111156112c85782518255916020019190600101906112ad565b5b5090506112d691906113ee565b5090565b8280546112e6906117fc565b90600052602060002090601f0160209004810192826113085760008555611356565b82601f106113195780548555611356565b8280016001018555821561135657600052602060002091601f016020900482015b8281111561135557825482559160010191906001019061133a565b5b50905061136391906113ee565b5090565b6040518060a0016040528060008019168152602001600073ffffffffffffffffffffffffffffffffffffffff16815260200160007bffffffffffffffffffffffffffffffffffffffffffffffffffffffff19168152602001600081526020016113ce6113d4565b81525090565b604051806040016040528060608152602001600081525090565b5b808211156114075760008160009055506001016113ef565b5090565b600081519050919050565b600082825260208201905092915050565b60005b8381101561144557808201518184015260208101905061142a565b83811115611454576000848401525b50505050565b6000601f19601f8301169050919050565b60006114768261140b565b6114808185611416565b9350611490818560208601611427565b6114998161145a565b840191505092915050565b600060208201905081810360008301526114be818461146b565b905092915050565b600081519050919050565b600082825260208201905092915050565b60006114ed826114c6565b6114f781856114d1565b9350611507818560208601611427565b6115108161145a565b840191505092915050565b6000602082019050818103600083015261153581846114e2565b905092915050565b600073ffffffffffffffffffffffffffffffffffffffff82169050919050565b60006115688261153d565b9050919050565b6115788161155d565b82525050565b6000602082019050611593600083018461156f565b92915050565b6000604051905090565b600080fd5b600080fd5b6000819050919050565b6115c0816115ad565b81146115cb57600080fd5b50565b6000813590506115dd816115b7565b92915050565b600080fd5b600080fd5b7f4e487b7100000000000000000000000000000000000000000000000000000000600052604160045260246000fd5b6116258261145a565b810181811067ffffffffffffffff82111715611644576116436115ed565b5b80604052505050565b6000611657611599565b9050611663828261161c565b919050565b600067ffffffffffffffff821115611683576116826115ed565b5b61168c8261145a565b9050602081019050919050565b82818337600083830152505050565b60006116bb6116b684611668565b61164d565b9050828152602081018484840111156116d7576116d66115e8565b5b6116e2848285611699565b509392505050565b600082601f8301126116ff576116fe6115e3565b5b813561170f8482602086016116a8565b91505092915050565b6000806040838503121561172f5761172e6115a3565b5b600061173d858286016115ce565b925050602083013567ffffffffffffffff81111561175e5761175d6115a8565b5b61176a858286016116ea565b9150509250929050565b61177d8161155d565b811461178857600080fd5b50565b60008135905061179a81611774565b92915050565b6000602082840312156117b6576117b56115a3565b5b60006117c48482850161178b565b91505092915050565b7f4e487b7100000000000000000000000000000000000000000000000000000000600052602260045260246000fd5b6000600282049050600182168061181457607f821691505b60208210811415611828576118276117cd565b5b50919050565b7f4d7573742062652070726f706f736564206f776e657200000000000000000000600082015250565b60006118646016836114d1565b915061186f8261182e565b602082019050919050565b6000602082019050818103600083015261189381611857565b9050919050565b6000819050919050565b6118ad8161189a565b81146118b857600080fd5b50565b6000815190506118ca816118a4565b92915050565b6000602082840312156118e6576118e56115a3565b5b60006118f4848285016118bb565b91505092915050565b6119068161189a565b82525050565b6000604082019050611921600083018561156f565b61192e60208301846118fd565b9392505050565b60008115159050919050565b61194a81611935565b811461195557600080fd5b50565b60008151905061196781611941565b92915050565b600060208284031215611983576119826115a3565b5b600061199184828501611958565b91505092915050565b7f556e61626c6520746f207472616e736665720000000000000000000000000000600082015250565b60006119d06012836114d1565b91506119db8261199a565b602082019050919050565b600060208201905081810360008301526119ff816119c3565b9050919050565b7f536f75726365206d75737420626520746865206f7261636c65206f662074686560008201527f2072657175657374000000000000000000000000000000000000000000000000602082015250565b6000611a626028836114d1565b9150611a6d82611a06565b604082019050919050565b60006020820190508181036000830152611a9181611a55565b9050919050565b600081905092915050565b6000611aae8261140b565b611ab88185611a98565b9350611ac8818560208601611427565b80840191505092915050565b6000611ae08284611aa3565b915081905092915050565b7f4f6e6c792063616c6c61626c65206279206f776e657200000000000000000000600082015250565b6000611b216016836114d1565b9150611b2c82611aeb565b602082019050919050565b60006020820190508181036000830152611b5081611b14565b9050919050565b7f43616e6e6f74207472616e7366657220746f2073656c66000000000000000000600082015250565b6000611b8d6017836114d1565b9150611b9882611b57565b602082019050919050565b60006020820190508181036000830152611bbc81611b80565b9050919050565b7f4e487b7100000000000000000000000000000000000000000000000000000000600052601160045260246000fd5b6000611bfd8261189a565b9150611c088361189a565b9250827fffffffffffffffffffffffffffffffffffffffffffffffffffffffffffffffff03821115611c3d57611c3c611bc3565b5b828201905092915050565b611c51816115ad565b82525050565b60007fffffffff0000000000000000000000000000000000000000000000000000000082169050919050565b611c8c81611c57565b82525050565b600061010082019050611ca8600083018b61156f565b611cb5602083018a6118fd565b611cc26040830189611c48565b611ccf606083018861156f565b611cdc6080830187611c83565b611ce960a08301866118fd565b611cf660c08301856118fd565b81810360e0830152611d08818461146b565b90509998505050505050505050565b7f4e487b7100000000000000000000000000000000000000000000000000000000600052601260045260246000fd5b6000611d518261189a565b9150611d5c8361189a565b925082611d6c57611d6b611d17565b5b828206905092915050565b6000611d828261189a565b9150611d8d8361189a565b925082821015611da057611d9f611bc3565b5b828203905092915050565b6000819050919050565b6000611dd0611dcb611dc68461153d565b611dab565b61153d565b9050919050565b6000611de282611db5565b9050919050565b6000611df482611dd7565b9050919050565b60008160601b9050919050565b6000611e1382611dfb565b9050919050565b6000611e2582611e08565b9050919050565b611e3d611e3882611de9565b611e1a565b82525050565b6000819050919050565b611e5e611e598261189a565b611e43565b82525050565b6000611e708285611e2c565b601482019150611e808284611e4d565b6020820191508190509392505050565b6000606082019050611ea5600083018661156f565b611eb260208301856118fd565b8181036040830152611ec4818461146b565b9050949350505050565b7f756e61626c6520746f207472616e73666572416e6443616c6c20746f206f726160008201527f636c650000000000000000000000000000000000000000000000000000000000602082015250565b6000611f2a6023836114d1565b9150611f3582611ece565b604082019050919050565b60006020820190508181036000830152611f5981611f1d565b9050919050565b6000611f6b8261189a565b9150611f768361189a565b9250817fffffffffffffffffffffffffffffffffffffffffffffffffffffffffffffffff0483118215151615611faf57611fae611bc3565b5b828202905092915050565b60008160011c9050919050565b6000808291508390505b600185111561201157808604811115611fed57611fec611bc3565b5b6001851615611ffc5780820291505b808102905061200a85611fba565b9450611fd1565b94509492505050565b60008261202a57600190506120e6565b8161203857600090506120e6565b816001811461204e576002811461205857612087565b60019150506120e6565b60ff84111561206a57612069611bc3565b5b8360020a91508482111561208157612080611bc3565b5b506120e6565b5060208310610133831016604e8410600b84101617156120bc5782820a9050838111156120b7576120b6611bc3565b5b6120e6565b6120c98484846001611fc7565b925090508184048111156120e0576120df611bc3565b5b81810290505b9392505050565b60006120f88261189a565b91506121038361189a565b92506121307fffffffffffffffffffffffffffffffffffffffffffffffffffffffffffffffff848461201a565b90509291505056fe68747470733a2f2f697066732e696f2f697066732f516d5a6773767241316f3143384247437278366d4854715231556931587162437274624d5672524c4874755056443f66696c656e616d653d6269672d6170692d726573706f6e73652e6a736f6ea2646970667358221220465047c499af2207feec26f6b6b51d9813ecb6f87743864617a95ca0d92e843a64736f6c63430008090033",
  "linkReferences": {},
  "deployedLinkReferences": {}
}