{
  "_format": "hh-sol-artifact-1",
  "contractName": "APIConsumerFromArray",
  "sourceName": "contracts/APIConsumerFromArray.sol",
  "abi": [
    {
      "inputs": [],
      "stateMutability": "nonpayable",
      "type": "constructor"
    },
    {
      "anonymous": false,
      "inputs": [
        {
          "indexed": true,
          "internalType": "bytes32",
          "name": "id",
          "type": "bytes32"
        }
      ],
      "name": "ChainlinkCancelled",
      "type": "event"
    },
    {
      "anonymous": false,
      "inputs": [
        {
          "indexed": true,
          "internalType": "bytes32",
          "name": "id",
          "type": "bytes32"
        }
      ],
      "name": "ChainlinkFulfilled",
      "type": "event"
    },
    {
      "anonymous": false,
      "inputs": [
        {
          "indexed": true,
          "internalType": "bytes32",
          "name": "id",
          "type": "bytes32"
        }
      ],
      "name": "ChainlinkRequested",
      "type": "event"
    },
    {
      "anonymous": false,
      "inputs": [
        {
          "indexed": true,
          "internalType": "address",
          "name": "from",
          "type": "address"
        },
        {
          "indexed": true,
          "internalType": "address",
          "name": "to",
          "type": "address"
        }
      ],
      "name": "OwnershipTransferRequested",
      "type": "event"
    },
    {
      "anonymous": false,
      "inputs": [
        {
          "indexed": true,
          "internalType": "address",
          "name": "from",
          "type": "address"
        },
        {
          "indexed": true,
          "internalType": "address",
          "name": "to",
          "type": "address"
        }
      ],
      "name": "OwnershipTransferred",
      "type": "event"
    },
    {
      "anonymous": false,
      "inputs": [
        {
          "indexed": true,
          "internalType": "bytes32",
          "name": "requestId",
          "type": "bytes32"
        },
        {
          "indexed": false,
          "internalType": "string",
          "name": "id",
          "type": "string"
        }
      ],
      "name": "RequestFirstId",
      "type": "event"
    },
    {
      "inputs": [],
      "name": "acceptOwnership",
      "outputs": [],
      "stateMutability": "nonpayable",
      "type": "function"
    },
    {
      "inputs": [
        {
          "internalType": "bytes32",
          "name": "_requestId",
          "type": "bytes32"
        },
        {
          "internalType": "string",
          "name": "_id",
          "type": "string"
        }
      ],
      "name": "fulfill",
      "outputs": [],
      "stateMutability": "nonpayable",
      "type": "function"
    },
    {
      "inputs": [],
      "name": "id",
      "outputs": [
        {
          "internalType": "string",
          "name": "",
          "type": "string"
        }
      ],
      "stateMutability": "view",
      "type": "function"
    },
    {
      "inputs": [],
      "name": "owner",
      "outputs": [
        {
          "internalType": "address",
          "name": "",
          "type": "address"
        }
      ],
      "stateMutability": "view",
      "type": "function"
    },
    {
      "inputs": [],
      "name": "requestFirstId",
      "outputs": [
        {
          "internalType": "bytes32",
          "name": "requestId",
          "type": "bytes32"
        }
      ],
      "stateMutability": "nonpayable",
      "type": "function"
    },
    {
      "inputs": [
        {
          "internalType": "address",
          "name": "to",
          "type": "address"
        }
      ],
      "name": "transferOwnership",
      "outputs": [],
      "stateMutability": "nonpayable",
      "type": "function"
    },
    {
      "inputs": [],
      "name": "withdrawLink",
      "outputs": [],
      "stateMutability": "nonpayable",
      "type": "function"
    }
  ],
  "bytecode": "0x608060405260016004553480156200001657600080fd5b50338060008073ffffffffffffffffffffffffffffffffffffffff168273ffffffffffffffffffffffffffffffffffffffff1614156200008d576040517f08c379a00000000000000000000000000000000000000000000000000000000081526004016200008490620003d5565b60405180910390fd5b81600660006101000a81548173ffffffffffffffffffffffffffffffffffffffff021916908373ffffffffffffffffffffffffffffffffffffffff160217905550600073ffffffffffffffffffffffffffffffffffffffff168173ffffffffffffffffffffffffffffffffffffffff161462000115576200011481620001ba60201b60201c565b5b5050506200013d73326c977e6efc84e512bb9c30f76e30c160ed06fb620002ec60201b60201c565b6200016273cc79157eb46f5624204f47ab42b3906caa40eab76200033060201b60201c565b7f3764383061363338366566353433613361626235323831376636373037653362600981905550600a670de0b6b3a76400006001620001a2919062000430565b620001ae9190620004c0565b600a819055506200056a565b3373ffffffffffffffffffffffffffffffffffffffff168173ffffffffffffffffffffffffffffffffffffffff1614156200022c576040517f08c379a0000000000000000000000000000000000000000000000000000000008152600401620002239062000548565b60405180910390fd5b80600760006101000a81548173ffffffffffffffffffffffffffffffffffffffff021916908373ffffffffffffffffffffffffffffffffffffffff1602179055508073ffffffffffffffffffffffffffffffffffffffff16600660009054906101000a900473ffffffffffffffffffffffffffffffffffffffff1673ffffffffffffffffffffffffffffffffffffffff167fed8889f560326eb138920d842192f0eb3dd22b4f139c87a2c57538e05bae127860405160405180910390a350565b80600260006101000a81548173ffffffffffffffffffffffffffffffffffffffff021916908373ffffffffffffffffffffffffffffffffffffffff16021790555050565b80600360006101000a81548173ffffffffffffffffffffffffffffffffffffffff021916908373ffffffffffffffffffffffffffffffffffffffff16021790555050565b600082825260208201905092915050565b7f43616e6e6f7420736574206f776e657220746f207a65726f0000000000000000600082015250565b6000620003bd60188362000374565b9150620003ca8262000385565b602082019050919050565b60006020820190508181036000830152620003f081620003ae565b9050919050565b6000819050919050565b7f4e487b7100000000000000000000000000000000000000000000000000000000600052601160045260246000fd5b60006200043d82620003f7565b91506200044a83620003f7565b9250817fffffffffffffffffffffffffffffffffffffffffffffffffffffffffffffffff048311821515161562000486576200048562000401565b5b828202905092915050565b7f4e487b7100000000000000000000000000000000000000000000000000000000600052601260045260246000fd5b6000620004cd82620003f7565b9150620004da83620003f7565b925082620004ed57620004ec62000491565b5b828204905092915050565b7f43616e6e6f74207472616e7366657220746f2073656c66000000000000000000600082015250565b60006200053060178362000374565b91506200053d82620004f8565b602082019050919050565b60006020820190508181036000830152620005638162000521565b9050919050565b61200a806200057a6000396000f3fe608060405234801561001057600080fd5b506004361061007d5760003560e01c80638da5cb5b1161005b5780638da5cb5b146100c65780638dc654a2146100e4578063af640d0f146100ee578063f2fde38b1461010c5761007d565b806309323a6a1461008257806337441996146100a057806379ba5097146100bc575b600080fd5b61008a610128565b60405161009791906112d0565b60405180910390f35b6100ba60048036038101906100b59190611471565b610234565b005b6100c461038d565b005b6100ce610524565b6040516100db919061150e565b60405180910390f35b6100ec61054e565b005b6100f66106b9565b60405161010391906115b1565b60405180910390f35b610126600480360381019061012191906115ff565b610747565b005b60008061013f60095430633744199660e01b61075b565b90506101a36040518060400160405280600381526020017f67657400000000000000000000000000000000000000000000000000000000008152506040518060800160405280604a8152602001611f8b604a91398361078c9092919063ffffffff16565b6102226040518060400160405280600481526020017f70617468000000000000000000000000000000000000000000000000000000008152506040518060400160405280600481526020017f302c6964000000000000000000000000000000000000000000000000000000008152508361078c9092919063ffffffff16565b61022e81600a546107bf565b91505090565b816005600082815260200190815260200160002060009054906101000a900473ffffffffffffffffffffffffffffffffffffffff1673ffffffffffffffffffffffffffffffffffffffff163373ffffffffffffffffffffffffffffffffffffffff16146102d6576040517f08c379a00000000000000000000000000000000000000000000000000000000081526004016102cd9061169e565b60405180910390fd5b6005600082815260200190815260200160002060006101000a81549073ffffffffffffffffffffffffffffffffffffffff0219169055807f7cc135e0cebb02c3480ae5d74d377283180a2601f8f644edf7987b009316c63a60405160405180910390a2827f5b72487f892feba565865a27f191da8fb1e852651bd966bfb0a41fc272c54aea8360405161036991906115b1565b60405180910390a2816008908051906020019061038792919061118d565b50505050565b600760009054906101000a900473ffffffffffffffffffffffffffffffffffffffff1673ffffffffffffffffffffffffffffffffffffffff163373ffffffffffffffffffffffffffffffffffffffff161461041d576040517f08c379a00000000000000000000000000000000000000000000000000000000081526004016104149061170a565b60405180910390fd5b6000600660009054906101000a900473ffffffffffffffffffffffffffffffffffffffff16905033600660006101000a81548173ffffffffffffffffffffffffffffffffffffffff021916908373ffffffffffffffffffffffffffffffffffffffff1602179055506000600760006101000a81548173ffffffffffffffffffffffffffffffffffffffff021916908373ffffffffffffffffffffffffffffffffffffffff1602179055503373ffffffffffffffffffffffffffffffffffffffff168173ffffffffffffffffffffffffffffffffffffffff167f8be0079c531659141344cd1fd0a4f28419497f9722a3daafe3b4186f6b6457e060405160405180910390a350565b6000600660009054906101000a900473ffffffffffffffffffffffffffffffffffffffff16905090565b6105566107f6565b6000610560610888565b90508073ffffffffffffffffffffffffffffffffffffffff1663a9059cbb338373ffffffffffffffffffffffffffffffffffffffff166370a08231306040518263ffffffff1660e01b81526004016105b8919061150e565b60206040518083038186803b1580156105d057600080fd5b505afa1580156105e4573d6000803e3d6000fd5b505050506040513d601f19601f820116820180604052508101906106089190611760565b6040518363ffffffff1660e01b815260040161062592919061179c565b602060405180830381600087803b15801561063f57600080fd5b505af1158015610653573d6000803e3d6000fd5b505050506040513d601f19601f8201168201806040525081019061067791906117fd565b6106b6576040517f08c379a00000000000000000000000000000000000000000000000000000000081526004016106ad90611876565b60405180910390fd5b50565b600880546106c6906118c5565b80601f01602080910402602001604051908101604052809291908181526020018280546106f2906118c5565b801561073f5780601f106107145761010080835404028352916020019161073f565b820191906000526020600020905b81548152906001019060200180831161072257829003601f168201915b505050505081565b61074f6107f6565b610758816108b2565b50565b610763611213565b61076b611213565b610782858585846109e1909392919063ffffffff16565b9150509392505050565b6107a3828460800151610a9190919063ffffffff16565b6107ba818460800151610a9190919063ffffffff16565b505050565b60006107ee600360009054906101000a900473ffffffffffffffffffffffffffffffffffffffff168484610ab6565b905092915050565b600660009054906101000a900473ffffffffffffffffffffffffffffffffffffffff1673ffffffffffffffffffffffffffffffffffffffff163373ffffffffffffffffffffffffffffffffffffffff1614610886576040517f08c379a000000000000000000000000000000000000000000000000000000000815260040161087d90611943565b60405180910390fd5b565b6000600260009054906101000a900473ffffffffffffffffffffffffffffffffffffffff16905090565b3373ffffffffffffffffffffffffffffffffffffffff168173ffffffffffffffffffffffffffffffffffffffff161415610921576040517f08c379a0000000000000000000000000000000000000000000000000000000008152600401610918906119af565b60405180910390fd5b80600760006101000a81548173ffffffffffffffffffffffffffffffffffffffff021916908373ffffffffffffffffffffffffffffffffffffffff1602179055508073ffffffffffffffffffffffffffffffffffffffff16600660009054906101000a900473ffffffffffffffffffffffffffffffffffffffff1673ffffffffffffffffffffffffffffffffffffffff167fed8889f560326eb138920d842192f0eb3dd22b4f139c87a2c57538e05bae127860405160405180910390a350565b6109e9611213565b6109f98560800151610100610b82565b508385600001818152505082856020019073ffffffffffffffffffffffffffffffffffffffff16908173ffffffffffffffffffffffffffffffffffffffff16815250508185604001907bffffffffffffffffffffffffffffffffffffffffffffffffffffffff191690817bffffffffffffffffffffffffffffffffffffffffffffffffffffffff191681525050849050949350505050565b610a9e8260038351610bec565b610ab18183610d7190919063ffffffff16565b505050565b6000806004549050600181610acb91906119fe565b6004819055506000634042994660e01b60008087600001513089604001518760018c6080015160000151604051602401610b0c989796959493929190611ae4565b604051602081830303815290604052907bffffffffffffffffffffffffffffffffffffffffffffffffffffffff19166020820180517bffffffffffffffffffffffffffffffffffffffffffffffffffffffff83818316178352505050509050610b7786838684610d93565b925050509392505050565b610b8a611280565b6000602083610b999190611b98565b14610bc557602082610bab9190611b98565b6020610bb79190611bc9565b82610bc291906119fe565b91505b81836020018181525050604051808452600081528281016020016040525082905092915050565b60178167ffffffffffffffff1611610c2357610c1d8160058460ff16901b60ff161784610f3790919063ffffffff16565b50610d6c565b60ff8167ffffffffffffffff1611610c7957610c52601860058460ff16901b1784610f3790919063ffffffff16565b50610c738167ffffffffffffffff16600185610f579092919063ffffffff16565b50610d6b565b61ffff8167ffffffffffffffff1611610cd057610ca9601960058460ff16901b1784610f3790919063ffffffff16565b50610cca8167ffffffffffffffff16600285610f579092919063ffffffff16565b50610d6a565b63ffffffff8167ffffffffffffffff1611610d2957610d02601a60058460ff16901b1784610f3790919063ffffffff16565b50610d238167ffffffffffffffff16600485610f579092919063ffffffff16565b50610d69565b610d46601b60058460ff16901b1784610f3790919063ffffffff16565b50610d678167ffffffffffffffff16600885610f579092919063ffffffff16565b505b5b5b5b505050565b610d79611280565b610d8b83846000015151848551610f79565b905092915050565b60003084604051602001610da8929190611cb6565b604051602081830303815290604052805190602001209050846005600083815260200190815260200160002060006101000a81548173ffffffffffffffffffffffffffffffffffffffff021916908373ffffffffffffffffffffffffffffffffffffffff160217905550807fb5e6e01e79f91267dc17b4e6314d5d4d03593d2ceee0fbb452b750bd70ea5af960405160405180910390a2600260009054906101000a900473ffffffffffffffffffffffffffffffffffffffff1673ffffffffffffffffffffffffffffffffffffffff16634000aea08685856040518463ffffffff1660e01b8152600401610e9e93929190611ce2565b602060405180830381600087803b158015610eb857600080fd5b505af1158015610ecc573d6000803e3d6000fd5b505050506040513d601f19601f82011682018060405250810190610ef091906117fd565b610f2f576040517f08c379a0000000000000000000000000000000000000000000000000000000008152600401610f2690611d92565b60405180910390fd5b949350505050565b610f3f611280565b610f4f8384600001515184611068565b905092915050565b610f5f611280565b610f708485600001515185856110bf565b90509392505050565b610f81611280565b8251821115610f8f57600080fd5b84602001518285610fa091906119fe565b1115610fd557610fd4856002610fc588602001518887610fc091906119fe565b61114d565b610fcf9190611db2565b611169565b5b600080865180518760208301019350808887011115610ff45787860182525b60208701925050505b6020841061103b578051825260208261101691906119fe565b915060208161102591906119fe565b90506020846110349190611bc9565b9350610ffd565b60006001856020036101000a03905080198251168184511681811785525050508692505050949350505050565b611070611280565b836020015183106110965761109584600286602001516110909190611db2565b611169565b5b83518051602085830101848153818614156110b2576001820183525b5050508390509392505050565b6110c7611280565b846020015184836110d891906119fe565b1115611100576110ff85600286856110f091906119fe565b6110fa9190611db2565b611169565b5b60006001836101006111129190611f3f565b61111c9190611bc9565b9050855183868201018583198251161781528151858801111561113f5784870182525b505085915050949350505050565b60008183111561115f57829050611163565b8190505b92915050565b60008260000151905061117c8383610b82565b506111878382610d71565b50505050565b828054611199906118c5565b90600052602060002090601f0160209004810192826111bb5760008555611202565b82601f106111d457805160ff1916838001178555611202565b82800160010185558215611202579182015b828111156112015782518255916020019190600101906111e6565b5b50905061120f919061129a565b5090565b6040518060a0016040528060008019168152602001600073ffffffffffffffffffffffffffffffffffffffff16815260200160007bffffffffffffffffffffffffffffffffffffffffffffffffffffffff191681526020016000815260200161127a611280565b81525090565b604051806040016040528060608152602001600081525090565b5b808211156112b357600081600090555060010161129b565b5090565b6000819050919050565b6112ca816112b7565b82525050565b60006020820190506112e560008301846112c1565b92915050565b6000604051905090565b600080fd5b600080fd5b611308816112b7565b811461131357600080fd5b50565b600081359050611325816112ff565b92915050565b600080fd5b600080fd5b6000601f19601f8301169050919050565b7f4e487b7100000000000000000000000000000000000000000000000000000000600052604160045260246000fd5b61137e82611335565b810181811067ffffffffffffffff8211171561139d5761139c611346565b5b80604052505050565b60006113b06112eb565b90506113bc8282611375565b919050565b600067ffffffffffffffff8211156113dc576113db611346565b5b6113e582611335565b9050602081019050919050565b82818337600083830152505050565b600061141461140f846113c1565b6113a6565b9050828152602081018484840111156114305761142f611330565b5b61143b8482856113f2565b509392505050565b600082601f8301126114585761145761132b565b5b8135611468848260208601611401565b91505092915050565b60008060408385031215611488576114876112f5565b5b600061149685828601611316565b925050602083013567ffffffffffffffff8111156114b7576114b66112fa565b5b6114c385828601611443565b9150509250929050565b600073ffffffffffffffffffffffffffffffffffffffff82169050919050565b60006114f8826114cd565b9050919050565b611508816114ed565b82525050565b600060208201905061152360008301846114ff565b92915050565b600081519050919050565b600082825260208201905092915050565b60005b83811015611563578082015181840152602081019050611548565b83811115611572576000848401525b50505050565b600061158382611529565b61158d8185611534565b935061159d818560208601611545565b6115a681611335565b840191505092915050565b600060208201905081810360008301526115cb8184611578565b905092915050565b6115dc816114ed565b81146115e757600080fd5b50565b6000813590506115f9816115d3565b92915050565b600060208284031215611615576116146112f5565b5b6000611623848285016115ea565b91505092915050565b7f536f75726365206d75737420626520746865206f7261636c65206f662074686560008201527f2072657175657374000000000000000000000000000000000000000000000000602082015250565b6000611688602883611534565b91506116938261162c565b604082019050919050565b600060208201905081810360008301526116b78161167b565b9050919050565b7f4d7573742062652070726f706f736564206f776e657200000000000000000000600082015250565b60006116f4601683611534565b91506116ff826116be565b602082019050919050565b60006020820190508181036000830152611723816116e7565b9050919050565b6000819050919050565b61173d8161172a565b811461174857600080fd5b50565b60008151905061175a81611734565b92915050565b600060208284031215611776576117756112f5565b5b60006117848482850161174b565b91505092915050565b6117968161172a565b82525050565b60006040820190506117b160008301856114ff565b6117be602083018461178d565b9392505050565b60008115159050919050565b6117da816117c5565b81146117e557600080fd5b50565b6000815190506117f7816117d1565b92915050565b600060208284031215611813576118126112f5565b5b6000611821848285016117e8565b91505092915050565b7f556e61626c6520746f207472616e736665720000000000000000000000000000600082015250565b6000611860601283611534565b915061186b8261182a565b602082019050919050565b6000602082019050818103600083015261188f81611853565b9050919050565b7f4e487b7100000000000000000000000000000000000000000000000000000000600052602260045260246000fd5b600060028204905060018216806118dd57607f821691505b602082108114156118f1576118f0611896565b5b50919050565b7f4f6e6c792063616c6c61626c65206279206f776e657200000000000000000000600082015250565b600061192d601683611534565b9150611938826118f7565b602082019050919050565b6000602082019050818103600083015261195c81611920565b9050919050565b7f43616e6e6f74207472616e7366657220746f2073656c66000000000000000000600082015250565b6000611999601783611534565b91506119a482611963565b602082019050919050565b600060208201905081810360008301526119c88161198c565b9050919050565b7f4e487b7100000000000000000000000000000000000000000000000000000000600052601160045260246000fd5b6000611a098261172a565b9150611a148361172a565b9250827fffffffffffffffffffffffffffffffffffffffffffffffffffffffffffffffff03821115611a4957611a486119cf565b5b828201905092915050565b60007fffffffff0000000000000000000000000000000000000000000000000000000082169050919050565b611a8981611a54565b82525050565b600081519050919050565b600082825260208201905092915050565b6000611ab682611a8f565b611ac08185611a9a565b9350611ad0818560208601611545565b611ad981611335565b840191505092915050565b600061010082019050611afa600083018b6114ff565b611b07602083018a61178d565b611b1460408301896112c1565b611b2160608301886114ff565b611b2e6080830187611a80565b611b3b60a083018661178d565b611b4860c083018561178d565b81810360e0830152611b5a8184611aab565b90509998505050505050505050565b7f4e487b7100000000000000000000000000000000000000000000000000000000600052601260045260246000fd5b6000611ba38261172a565b9150611bae8361172a565b925082611bbe57611bbd611b69565b5b828206905092915050565b6000611bd48261172a565b9150611bdf8361172a565b925082821015611bf257611bf16119cf565b5b828203905092915050565b6000819050919050565b6000611c22611c1d611c18846114cd565b611bfd565b6114cd565b9050919050565b6000611c3482611c07565b9050919050565b6000611c4682611c29565b9050919050565b60008160601b9050919050565b6000611c6582611c4d565b9050919050565b6000611c7782611c5a565b9050919050565b611c8f611c8a82611c3b565b611c6c565b82525050565b6000819050919050565b611cb0611cab8261172a565b611c95565b82525050565b6000611cc28285611c7e565b601482019150611cd28284611c9f565b6020820191508190509392505050565b6000606082019050611cf760008301866114ff565b611d04602083018561178d565b8181036040830152611d168184611aab565b9050949350505050565b7f756e61626c6520746f207472616e73666572416e6443616c6c20746f206f726160008201527f636c650000000000000000000000000000000000000000000000000000000000602082015250565b6000611d7c602383611534565b9150611d8782611d20565b604082019050919050565b60006020820190508181036000830152611dab81611d6f565b9050919050565b6000611dbd8261172a565b9150611dc88361172a565b9250817fffffffffffffffffffffffffffffffffffffffffffffffffffffffffffffffff0483118215151615611e0157611e006119cf565b5b828202905092915050565b60008160011c9050919050565b6000808291508390505b6001851115611e6357808604811115611e3f57611e3e6119cf565b5b6001851615611e4e5780820291505b8081029050611e5c85611e0c565b9450611e23565b94509492505050565b600082611e7c5760019050611f38565b81611e8a5760009050611f38565b8160018114611ea05760028114611eaa57611ed9565b6001915050611f38565b60ff841115611ebc57611ebb6119cf565b5b8360020a915084821115611ed357611ed26119cf565b5b50611f38565b5060208310610133831016604e8410600b8410161715611f0e5782820a905083811115611f0957611f086119cf565b5b611f38565b611f1b8484846001611e19565b92509050818404811115611f3257611f316119cf565b5b81810290505b9392505050565b6000611f4a8261172a565b9150611f558361172a565b9250611f827fffffffffffffffffffffffffffffffffffffffffffffffffffffffffffffffff8484611e6c565b90509291505056fe68747470733a2f2f6170692e636f696e6765636b6f2e636f6d2f6170692f76332f636f696e732f6d61726b6574733f76735f63757272656e63793d757364267065725f706167653d3130a264697066735822122040bdef8b060925742443206ada415edb52ddd85d0ffe73256c7641fb381e2ba864736f6c63430008090033",
  "linkReferences": {},
  "deployedLinkReferences": {}
}