{"contracts/APIConsumer.sol":{"APIConsumer":{"abi":[{"inputs":[],"stateMutability":"nonpayable","type":"constructor"},{"anonymous":false,"inputs":[{"indexed":true,"internalType":"bytes32","name":"id","type":"bytes32"}],"name":"ChainlinkCancelled","type":"event"},{"anonymous":false,"inputs":[{"indexed":true,"internalType":"bytes32","name":"id","type":"bytes32"}],"name":"ChainlinkFulfilled","type":"event"},{"anonymous":false,"inputs":[{"indexed":true,"internalType":"bytes32","name":"id","type":"bytes32"}],"name":"ChainlinkRequested","type":"event"},{"anonymous":false,"inputs":[{"indexed":true,"internalType":"address","name":"from","type":"address"},{"indexed":true,"internalType":"address","name":"to","type":"address"}],"name":"OwnershipTransferRequested","type":"event"},{"anonymous":false,"inputs":[{"indexed":true,"internalType":"address","name":"from","type":"address"},{"indexed":true,"internalType":"address","name":"to","type":"address"}],"name":"OwnershipTransferred","type":"event"},{"anonymous":false,"inputs":[{"indexed":true,"internalType":"bytes32","name":"requestId","type":"bytes32"},{"indexed":false,"internalType":"uint256","name":"volume","type":"uint256"}],"name":"RequestVolume","type":"event"},{"inputs":[],"name":"acceptOwnership","outputs":[],"stateMutability":"nonpayable","type":"function"},{"inputs":[{"internalType":"bytes32","name":"_requestId","type":"bytes32"},{"internalType":"uint256","name":"_volume","type":"uint256"}],"name":"fulfill","outputs":[],"stateMutability":"nonpayable","type":"function"},{"inputs":[],"name":"owner","outputs":[{"internalType":"address","name":"","type":"address"}],"stateMutability":"view","type":"function"},{"inputs":[],"name":"requestVolumeData","outputs":[{"internalType":"bytes32","name":"requestId","type":"bytes32"}],"stateMutability":"nonpayable","type":"function"},{"inputs":[{"internalType":"address","name":"to","type":"address"}],"name":"transferOwnership","outputs":[],"stateMutability":"nonpayable","type":"function"},{"inputs":[],"name":"volume","outputs":[{"internalType":"uint256","name":"","type":"uint256"}],"stateMutability":"view","type":"function"},{"inputs":[],"name":"withdrawLink","outputs":[],"stateMutability":"nonpayable","type":"function"}],"evm":{"bytecode":{"linkReferences":{},"object":"608060405260016004553480156200001657600080fd5b50338060008073ffffffffffffffffffffffffffffffffffffffff168273ffffffffffffffffffffffffffffffffffffffff1614156200008d576040517f08c379a00000000000000000000000000000000000000000000000000000000081526004016200008490620003d5565b60405180910390fd5b81600660006101000a81548173ffffffffffffffffffffffffffffffffffffffff021916908373ffffffffffffffffffffffffffffffffffffffff160217905550600073ffffffffffffffffffffffffffffffffffffffff168173ffffffffffffffffffffffffffffffffffffffff161462000115576200011481620001ba60201b60201c565b5b5050506200013d73326c977e6efc84e512bb9c30f76e30c160ed06fb620002ec60201b60201c565b6200016273cc79157eb46f5624204f47ab42b3906caa40eab76200033060201b60201c565b7f6361393833363663633733313439353762386330313263373266303561656562600981905550600a670de0b6b3a76400006001620001a2919062000430565b620001ae9190620004c0565b600a819055506200056a565b3373ffffffffffffffffffffffffffffffffffffffff168173ffffffffffffffffffffffffffffffffffffffff1614156200022c576040517f08c379a0000000000000000000000000000000000000000000000000000000008152600401620002239062000548565b60405180910390fd5b80600760006101000a81548173ffffffffffffffffffffffffffffffffffffffff021916908373ffffffffffffffffffffffffffffffffffffffff1602179055508073ffffffffffffffffffffffffffffffffffffffff16600660009054906101000a900473ffffffffffffffffffffffffffffffffffffffff1673ffffffffffffffffffffffffffffffffffffffff167fed8889f560326eb138920d842192f0eb3dd22b4f139c87a2c57538e05bae127860405160405180910390a350565b80600260006101000a81548173ffffffffffffffffffffffffffffffffffffffff021916908373ffffffffffffffffffffffffffffffffffffffff16021790555050565b80600360006101000a81548173ffffffffffffffffffffffffffffffffffffffff021916908373ffffffffffffffffffffffffffffffffffffffff16021790555050565b600082825260208201905092915050565b7f43616e6e6f7420736574206f776e657220746f207a65726f0000000000000000600082015250565b6000620003bd60188362000374565b9150620003ca8262000385565b602082019050919050565b60006020820190508181036000830152620003f081620003ae565b9050919050565b6000819050919050565b7f4e487b7100000000000000000000000000000000000000000000000000000000600052601160045260246000fd5b60006200043d82620003f7565b91506200044a83620003f7565b9250817fffffffffffffffffffffffffffffffffffffffffffffffffffffffffffffffff048311821515161562000486576200048562000401565b5b828202905092915050565b7f4e487b7100000000000000000000000000000000000000000000000000000000600052601260045260246000fd5b6000620004cd82620003f7565b9150620004da83620003f7565b925082620004ed57620004ec62000491565b5b828204905092915050565b7f43616e6e6f74207472616e7366657220746f2073656c66000000000000000000600082015250565b60006200053060178362000374565b91506200053d82620004f8565b602082019050919050565b60006020820190508181036000830152620005638162000521565b9050919050565b611f95806200057a6000396000f3fe608060405234801561001057600080fd5b506004361061007d5760003560e01c80638da5cb5b1161005b5780638da5cb5b146100c65780638dc654a2146100e4578063c618a1e4146100ee578063f2fde38b1461010c5761007d565b80634357855e146100825780636021abac1461009e57806379ba5097146100bc575b600080fd5b61009c6004803603810190610097919061140d565b610128565b005b6100a6610271565b6040516100b3919061145c565b60405180910390f35b6100c46103d5565b005b6100ce61056c565b6040516100db91906114b8565b60405180910390f35b6100ec610596565b005b6100f6610701565b60405161010391906114e2565b60405180910390f35b61012660048036038101906101219190611529565b610707565b005b816005600082815260200190815260200160002060009054906101000a900473ffffffffffffffffffffffffffffffffffffffff1673ffffffffffffffffffffffffffffffffffffffff163373ffffffffffffffffffffffffffffffffffffffff16146101ca576040517f08c379a00000000000000000000000000000000000000000000000000000000081526004016101c1906115d9565b60405180910390fd5b6005600082815260200190815260200160002060006101000a81549073ffffffffffffffffffffffffffffffffffffffff0219169055807f7cc135e0cebb02c3480ae5d74d377283180a2601f8f644edf7987b009316c63a60405160405180910390a2827f673b38182859a514d734bdfcb49d3a05c4a641dec9311d9894c9717bcb79af768360405161025d91906114e2565b60405180910390a281600881905550505050565b60008061028860095430634357855e60e01b61071b565b90506102ec6040518060400160405280600381526020017f6765740000000000000000000000000000000000000000000000000000000000815250604051806080016040528060498152602001611f17604991398361074c9092919063ffffffff16565b61036b6040518060400160405280600481526020017f70617468000000000000000000000000000000000000000000000000000000008152506040518060400160405280601881526020017f5241572c4554482c5553442c564f4c554d453234484f555200000000000000008152508361074c9092919063ffffffff16565b6000670de0b6b3a764000090506103c26040518060400160405280600581526020017f74696d6573000000000000000000000000000000000000000000000000000000815250828461077f9092919063ffffffff16565b6103ce82600a546107b2565b9250505090565b600760009054906101000a900473ffffffffffffffffffffffffffffffffffffffff1673ffffffffffffffffffffffffffffffffffffffff163373ffffffffffffffffffffffffffffffffffffffff1614610465576040517f08c379a000000000000000000000000000000000000000000000000000000000815260040161045c90611645565b60405180910390fd5b6000600660009054906101000a900473ffffffffffffffffffffffffffffffffffffffff16905033600660006101000a81548173ffffffffffffffffffffffffffffffffffffffff021916908373ffffffffffffffffffffffffffffffffffffffff1602179055506000600760006101000a81548173ffffffffffffffffffffffffffffffffffffffff021916908373ffffffffffffffffffffffffffffffffffffffff1602179055503373ffffffffffffffffffffffffffffffffffffffff168173ffffffffffffffffffffffffffffffffffffffff167f8be0079c531659141344cd1fd0a4f28419497f9722a3daafe3b4186f6b6457e060405160405180910390a350565b6000600660009054906101000a900473ffffffffffffffffffffffffffffffffffffffff16905090565b61059e6107e9565b60006105a861087b565b90508073ffffffffffffffffffffffffffffffffffffffff1663a9059cbb338373ffffffffffffffffffffffffffffffffffffffff166370a08231306040518263ffffffff1660e01b815260040161060091906114b8565b60206040518083038186803b15801561061857600080fd5b505afa15801561062c573d6000803e3d6000fd5b505050506040513d601f19601f82011682018060405250810190610650919061167a565b6040518363ffffffff1660e01b815260040161066d9291906116a7565b602060405180830381600087803b15801561068757600080fd5b505af115801561069b573d6000803e3d6000fd5b505050506040513d601f19601f820116820180604052508101906106bf9190611708565b6106fe576040517f08c379a00000000000000000000000000000000000000000000000000000000081526004016106f590611781565b60405180910390fd5b50565b60085481565b61070f6107e9565b610718816108a5565b50565b610723611315565b61072b611315565b610742858585846109d4909392919063ffffffff16565b9150509392505050565b610763828460800151610a8490919063ffffffff16565b61077a818460800151610a8490919063ffffffff16565b505050565b610796828460800151610a8490919063ffffffff16565b6107ad818460800151610aa990919063ffffffff16565b505050565b60006107e1600360009054906101000a900473ffffffffffffffffffffffffffffffffffffffff168484610b56565b905092915050565b600660009054906101000a900473ffffffffffffffffffffffffffffffffffffffff1673ffffffffffffffffffffffffffffffffffffffff163373ffffffffffffffffffffffffffffffffffffffff1614610879576040517f08c379a0000000000000000000000000000000000000000000000000000000008152600401610870906117ed565b60405180910390fd5b565b6000600260009054906101000a900473ffffffffffffffffffffffffffffffffffffffff16905090565b3373ffffffffffffffffffffffffffffffffffffffff168173ffffffffffffffffffffffffffffffffffffffff161415610914576040517f08c379a000000000000000000000000000000000000000000000000000000000815260040161090b90611859565b60405180910390fd5b80600760006101000a81548173ffffffffffffffffffffffffffffffffffffffff021916908373ffffffffffffffffffffffffffffffffffffffff1602179055508073ffffffffffffffffffffffffffffffffffffffff16600660009054906101000a900473ffffffffffffffffffffffffffffffffffffffff1673ffffffffffffffffffffffffffffffffffffffff167fed8889f560326eb138920d842192f0eb3dd22b4f139c87a2c57538e05bae127860405160405180910390a350565b6109dc611315565b6109ec8560800151610100610c22565b508385600001818152505082856020019073ffffffffffffffffffffffffffffffffffffffff16908173ffffffffffffffffffffffffffffffffffffffff16815250508185604001907bffffffffffffffffffffffffffffffffffffffffffffffffffffffff191690817bffffffffffffffffffffffffffffffffffffffffffffffffffffffff191681525050849050949350505050565b610a918260038351610c8c565b610aa48183610e1190919063ffffffff16565b505050565b7fffffffffffffffffffffffffffffffffffffffffffffffff0000000000000000811215610ae057610adb8282610e33565b610b52565b67ffffffffffffffff811315610aff57610afa8282610eaa565b610b51565b60008112610b1857610b1382600083610c8c565b610b50565b610b4f826001837fffffffffffffffffffffffffffffffffffffffffffffffffffffffffffffffff610b4a91906118b2565b610c8c565b5b5b5b5050565b6000806004549050600181610b6b9190611946565b6004819055506000634042994660e01b60008087600001513089604001518760018c6080015160000151604051602401610bac989796959493929190611a70565b604051602081830303815290604052907bffffffffffffffffffffffffffffffffffffffffffffffffffffffff19166020820180517bffffffffffffffffffffffffffffffffffffffffffffffffffffffff83818316178352505050509050610c1786838684610ef6565b925050509392505050565b610c2a611382565b6000602083610c399190611b24565b14610c6557602082610c4b9190611b24565b6020610c579190611b55565b82610c629190611946565b91505b81836020018181525050604051808452600081528281016020016040525082905092915050565b60178167ffffffffffffffff1611610cc357610cbd8160058460ff16901b60ff16178461109a90919063ffffffff16565b50610e0c565b60ff8167ffffffffffffffff1611610d1957610cf2601860058460ff16901b178461109a90919063ffffffff16565b50610d138167ffffffffffffffff166001856110ba9092919063ffffffff16565b50610e0b565b61ffff8167ffffffffffffffff1611610d7057610d49601960058460ff16901b178461109a90919063ffffffff16565b50610d6a8167ffffffffffffffff166002856110ba9092919063ffffffff16565b50610e0a565b63ffffffff8167ffffffffffffffff1611610dc957610da2601a60058460ff16901b178461109a90919063ffffffff16565b50610dc38167ffffffffffffffff166004856110ba9092919063ffffffff16565b50610e09565b610de6601b60058460ff16901b178461109a90919063ffffffff16565b50610e078167ffffffffffffffff166008856110ba9092919063ffffffff16565b505b5b5b5b505050565b610e19611382565b610e2b838460000151518485516110dc565b905092915050565b610e5160036005600660ff16901b178361109a90919063ffffffff16565b50610ea682827fffffffffffffffffffffffffffffffffffffffffffffffffffffffffffffffff610e8291906118b2565b604051602001610e9291906114e2565b6040516020818303038152906040526111cb565b5050565b610ec860026005600660ff16901b178361109a90919063ffffffff16565b50610ef28282604051602001610ede91906114e2565b6040516020818303038152906040526111cb565b5050565b60003084604051602001610f0b929190611c42565b604051602081830303815290604052805190602001209050846005600083815260200190815260200160002060006101000a81548173ffffffffffffffffffffffffffffffffffffffff021916908373ffffffffffffffffffffffffffffffffffffffff160217905550807fb5e6e01e79f91267dc17b4e6314d5d4d03593d2ceee0fbb452b750bd70ea5af960405160405180910390a2600260009054906101000a900473ffffffffffffffffffffffffffffffffffffffff1673ffffffffffffffffffffffffffffffffffffffff16634000aea08685856040518463ffffffff1660e01b815260040161100193929190611c6e565b602060405180830381600087803b15801561101b57600080fd5b505af115801561102f573d6000803e3d6000fd5b505050506040513d601f19601f820116820180604052508101906110539190611708565b611092576040517f08c379a000000000000000000000000000000000000000000000000000000000815260040161108990611d1e565b60405180910390fd5b949350505050565b6110a2611382565b6110b283846000015151846111f0565b905092915050565b6110c2611382565b6110d3848560000151518585611247565b90509392505050565b6110e4611382565b82518211156110f257600080fd5b846020015182856111039190611946565b111561113857611137856002611128886020015188876111239190611946565b6112d5565b6111329190611d3e565b6112f1565b5b6000808651805187602083010193508088870111156111575787860182525b60208701925050505b6020841061119e57805182526020826111799190611946565b91506020816111889190611946565b90506020846111979190611b55565b9350611160565b60006001856020036101000a03905080198251168184511681811785525050508692505050949350505050565b6111d88260028351610c8c565b6111eb8183610e1190919063ffffffff16565b505050565b6111f8611382565b8360200151831061121e5761121d84600286602001516112189190611d3e565b6112f1565b5b835180516020858301018481538186141561123a576001820183525b5050508390509392505050565b61124f611382565b846020015184836112609190611946565b11156112885761128785600286856112789190611946565b6112829190611d3e565b6112f1565b5b600060018361010061129a9190611ecb565b6112a49190611b55565b905085518386820101858319825116178152815185880111156112c75784870182525b505085915050949350505050565b6000818311156112e7578290506112eb565b8190505b92915050565b6000826000015190506113048383610c22565b5061130f8382610e11565b50505050565b6040518060a0016040528060008019168152602001600073ffffffffffffffffffffffffffffffffffffffff16815260200160007bffffffffffffffffffffffffffffffffffffffffffffffffffffffff191681526020016000815260200161137c611382565b81525090565b604051806040016040528060608152602001600081525090565b600080fd5b6000819050919050565b6113b4816113a1565b81146113bf57600080fd5b50565b6000813590506113d1816113ab565b92915050565b6000819050919050565b6113ea816113d7565b81146113f557600080fd5b50565b600081359050611407816113e1565b92915050565b600080604083850312156114245761142361139c565b5b6000611432858286016113c2565b9250506020611443858286016113f8565b9150509250929050565b611456816113a1565b82525050565b6000602082019050611471600083018461144d565b92915050565b600073ffffffffffffffffffffffffffffffffffffffff82169050919050565b60006114a282611477565b9050919050565b6114b281611497565b82525050565b60006020820190506114cd60008301846114a9565b92915050565b6114dc816113d7565b82525050565b60006020820190506114f760008301846114d3565b92915050565b61150681611497565b811461151157600080fd5b50565b600081359050611523816114fd565b92915050565b60006020828403121561153f5761153e61139c565b5b600061154d84828501611514565b91505092915050565b600082825260208201905092915050565b7f536f75726365206d75737420626520746865206f7261636c65206f662074686560008201527f2072657175657374000000000000000000000000000000000000000000000000602082015250565b60006115c3602883611556565b91506115ce82611567565b604082019050919050565b600060208201905081810360008301526115f2816115b6565b9050919050565b7f4d7573742062652070726f706f736564206f776e657200000000000000000000600082015250565b600061162f601683611556565b915061163a826115f9565b602082019050919050565b6000602082019050818103600083015261165e81611622565b9050919050565b600081519050611674816113e1565b92915050565b6000602082840312156116905761168f61139c565b5b600061169e84828501611665565b91505092915050565b60006040820190506116bc60008301856114a9565b6116c960208301846114d3565b9392505050565b60008115159050919050565b6116e5816116d0565b81146116f057600080fd5b50565b600081519050611702816116dc565b92915050565b60006020828403121561171e5761171d61139c565b5b600061172c848285016116f3565b91505092915050565b7f556e61626c6520746f207472616e736665720000000000000000000000000000600082015250565b600061176b601283611556565b915061177682611735565b602082019050919050565b6000602082019050818103600083015261179a8161175e565b9050919050565b7f4f6e6c792063616c6c61626c65206279206f776e657200000000000000000000600082015250565b60006117d7601683611556565b91506117e2826117a1565b602082019050919050565b60006020820190508181036000830152611806816117ca565b9050919050565b7f43616e6e6f74207472616e7366657220746f2073656c66000000000000000000600082015250565b6000611843601783611556565b915061184e8261180d565b602082019050919050565b6000602082019050818103600083015261187281611836565b9050919050565b6000819050919050565b7f4e487b7100000000000000000000000000000000000000000000000000000000600052601160045260246000fd5b60006118bd82611879565b91506118c883611879565b9250827f80000000000000000000000000000000000000000000000000000000000000000182126000841215161561190357611902611883565b5b827f7fffffffffffffffffffffffffffffffffffffffffffffffffffffffffffffff01821360008412161561193b5761193a611883565b5b828203905092915050565b6000611951826113d7565b915061195c836113d7565b9250827fffffffffffffffffffffffffffffffffffffffffffffffffffffffffffffffff0382111561199157611990611883565b5b828201905092915050565b60007fffffffff0000000000000000000000000000000000000000000000000000000082169050919050565b6119d18161199c565b82525050565b600081519050919050565b600082825260208201905092915050565b60005b83811015611a115780820151818401526020810190506119f6565b83811115611a20576000848401525b50505050565b6000601f19601f8301169050919050565b6000611a42826119d7565b611a4c81856119e2565b9350611a5c8185602086016119f3565b611a6581611a26565b840191505092915050565b600061010082019050611a86600083018b6114a9565b611a93602083018a6114d3565b611aa0604083018961144d565b611aad60608301886114a9565b611aba60808301876119c8565b611ac760a08301866114d3565b611ad460c08301856114d3565b81810360e0830152611ae68184611a37565b90509998505050505050505050565b7f4e487b7100000000000000000000000000000000000000000000000000000000600052601260045260246000fd5b6000611b2f826113d7565b9150611b3a836113d7565b925082611b4a57611b49611af5565b5b828206905092915050565b6000611b60826113d7565b9150611b6b836113d7565b925082821015611b7e57611b7d611883565b5b828203905092915050565b6000819050919050565b6000611bae611ba9611ba484611477565b611b89565b611477565b9050919050565b6000611bc082611b93565b9050919050565b6000611bd282611bb5565b9050919050565b60008160601b9050919050565b6000611bf182611bd9565b9050919050565b6000611c0382611be6565b9050919050565b611c1b611c1682611bc7565b611bf8565b82525050565b6000819050919050565b611c3c611c37826113d7565b611c21565b82525050565b6000611c4e8285611c0a565b601482019150611c5e8284611c2b565b6020820191508190509392505050565b6000606082019050611c8360008301866114a9565b611c9060208301856114d3565b8181036040830152611ca28184611a37565b9050949350505050565b7f756e61626c6520746f207472616e73666572416e6443616c6c20746f206f726160008201527f636c650000000000000000000000000000000000000000000000000000000000602082015250565b6000611d08602383611556565b9150611d1382611cac565b604082019050919050565b60006020820190508181036000830152611d3781611cfb565b9050919050565b6000611d49826113d7565b9150611d54836113d7565b9250817fffffffffffffffffffffffffffffffffffffffffffffffffffffffffffffffff0483118215151615611d8d57611d8c611883565b5b828202905092915050565b60008160011c9050919050565b6000808291508390505b6001851115611def57808604811115611dcb57611dca611883565b5b6001851615611dda5780820291505b8081029050611de885611d98565b9450611daf565b94509492505050565b600082611e085760019050611ec4565b81611e165760009050611ec4565b8160018114611e2c5760028114611e3657611e65565b6001915050611ec4565b60ff841115611e4857611e47611883565b5b8360020a915084821115611e5f57611e5e611883565b5b50611ec4565b5060208310610133831016604e8410600b8410161715611e9a5782820a905083811115611e9557611e94611883565b5b611ec4565b611ea78484846001611da5565b92509050818404811115611ebe57611ebd611883565b5b81810290505b9392505050565b6000611ed6826113d7565b9150611ee1836113d7565b9250611f0e7fffffffffffffffffffffffffffffffffffffffffffffffffffffffffffffffff8484611df8565b90509291505056fe68747470733a2f2f6d696e2d6170692e63727970746f636f6d706172652e636f6d2f646174612f70726963656d756c746966756c6c3f6673796d733d455448267473796d733d555344a26469706673582212206207ba8c8ea68a7002f416d78f027708ae5d19ed4561e8760f5dfe2e3149268e64736f6c63430008090033","opcodes":"PUSH1 0x80 PUSH1 0x40 MSTORE PUSH1 0x1 PUSH1 0x4 SSTORE CALLVALUE DUP1 ISZERO PUSH3 0x16 JUMPI PUSH1 0x0 DUP1 REVERT JUMPDEST POP CALLER DUP1 PUSH1 0x0 DUP1 PUSH20 0xFFFFFFFFFFFFFFFFFFFFFFFFFFFFFFFFFFFFFFFF AND DUP3 PUSH20 0xFFFFFFFFFFFFFFFFFFFFFFFFFFFFFFFFFFFFFFFF AND EQ ISZERO PUSH3 0x8D JUMPI PUSH1 0x40 MLOAD PUSH32 0x8C379A000000000000000000000000000000000000000000000000000000000 DUP2 MSTORE PUSH1 0x4 ADD PUSH3 0x84 SWAP1 PUSH3 0x3D5 JUMP JUMPDEST PUSH1 0x40 MLOAD DUP1 SWAP2 SUB SWAP1 REVERT JUMPDEST DUP2 PUSH1 0x6 PUSH1 0x0 PUSH2 0x100 EXP DUP2 SLOAD DUP2 PUSH20 0xFFFFFFFFFFFFFFFFFFFFFFFFFFFFFFFFFFFFFFFF MUL NOT AND SWAP1 DUP4 PUSH20 0xFFFFFFFFFFFFFFFFFFFFFFFFFFFFFFFFFFFFFFFF AND MUL OR SWAP1 SSTORE POP PUSH1 0x0 PUSH20 0xFFFFFFFFFFFFFFFFFFFFFFFFFFFFFFFFFFFFFFFF AND DUP2 PUSH20 0xFFFFFFFFFFFFFFFFFFFFFFFFFFFFFFFFFFFFFFFF AND EQ PUSH3 0x115 JUMPI PUSH3 0x114 DUP2 PUSH3 0x1BA PUSH1 0x20 SHL PUSH1 0x20 SHR JUMP JUMPDEST JUMPDEST POP POP POP PUSH3 0x13D PUSH20 0x326C977E6EFC84E512BB9C30F76E30C160ED06FB PUSH3 0x2EC PUSH1 0x20 SHL PUSH1 0x20 SHR JUMP JUMPDEST PUSH3 0x162 PUSH20 0xCC79157EB46F5624204F47AB42B3906CAA40EAB7 PUSH3 0x330 PUSH1 0x20 SHL PUSH1 0x20 SHR JUMP JUMPDEST PUSH32 0x6361393833363663633733313439353762386330313263373266303561656562 PUSH1 0x9 DUP2 SWAP1 SSTORE POP PUSH1 0xA PUSH8 0xDE0B6B3A7640000 PUSH1 0x1 PUSH3 0x1A2 SWAP2 SWAP1 PUSH3 0x430 JUMP JUMPDEST PUSH3 0x1AE SWAP2 SWAP1 PUSH3 0x4C0 JUMP JUMPDEST PUSH1 0xA DUP2 SWAP1 SSTORE POP PUSH3 0x56A JUMP JUMPDEST CALLER PUSH20 0xFFFFFFFFFFFFFFFFFFFFFFFFFFFFFFFFFFFFFFFF AND DUP2 PUSH20 0xFFFFFFFFFFFFFFFFFFFFFFFFFFFFFFFFFFFFFFFF AND EQ ISZERO PUSH3 0x22C JUMPI PUSH1 0x40 MLOAD PUSH32 0x8C379A000000000000000000000000000000000000000000000000000000000 DUP2 MSTORE PUSH1 0x4 ADD PUSH3 0x223 SWAP1 PUSH3 0x548 JUMP JUMPDEST PUSH1 0x40 MLOAD DUP1 SWAP2 SUB SWAP1 REVERT JUMPDEST DUP1 PUSH1 0x7 PUSH1 0x0 PUSH2 0x100 EXP DUP2 SLOAD DUP2 PUSH20 0xFFFFFFFFFFFFFFFFFFFFFFFFFFFFFFFFFFFFFFFF MUL NOT AND SWAP1 DUP4 PUSH20 0xFFFFFFFFFFFFFFFFFFFFFFFFFFFFFFFFFFFFFFFF AND MUL OR SWAP1 SSTORE POP DUP1 PUSH20 0xFFFFFFFFFFFFFFFFFFFFFFFFFFFFFFFFFFFFFFFF AND PUSH1 0x6 PUSH1 0x0 SWAP1 SLOAD SWAP1 PUSH2 0x100 EXP SWAP1 DIV PUSH20 0xFFFFFFFFFFFFFFFFFFFFFFFFFFFFFFFFFFFFFFFF AND PUSH20 0xFFFFFFFFFFFFFFFFFFFFFFFFFFFFFFFFFFFFFFFF AND PUSH32 0xED8889F560326EB138920D842192F0EB3DD22B4F139C87A2C57538E05BAE1278 PUSH1 0x40 MLOAD PUSH1 0x40 MLOAD DUP1 SWAP2 SUB SWAP1 LOG3 POP JUMP JUMPDEST DUP1 PUSH1 0x2 PUSH1 0x0 PUSH2 0x100 EXP DUP2 SLOAD DUP2 PUSH20 0xFFFFFFFFFFFFFFFFFFFFFFFFFFFFFFFFFFFFFFFF MUL NOT AND SWAP1 DUP4 PUSH20 0xFFFFFFFFFFFFFFFFFFFFFFFFFFFFFFFFFFFFFFFF AND MUL OR SWAP1 SSTORE POP POP JUMP JUMPDEST DUP1 PUSH1 0x3 PUSH1 0x0 PUSH2 0x100 EXP DUP2 SLOAD DUP2 PUSH20 0xFFFFFFFFFFFFFFFFFFFFFFFFFFFFFFFFFFFFFFFF MUL NOT AND SWAP1 DUP4 PUSH20 0xFFFFFFFFFFFFFFFFFFFFFFFFFFFFFFFFFFFFFFFF AND MUL OR SWAP1 SSTORE POP POP JUMP JUMPDEST PUSH1 0x0 DUP3 DUP3 MSTORE PUSH1 0x20 DUP3 ADD SWAP1 POP SWAP3 SWAP2 POP POP JUMP JUMPDEST PUSH32 0x43616E6E6F7420736574206F776E657220746F207A65726F0000000000000000 PUSH1 0x0 DUP3 ADD MSTORE POP JUMP JUMPDEST PUSH1 0x0 PUSH3 0x3BD PUSH1 0x18 DUP4 PUSH3 0x374 JUMP JUMPDEST SWAP2 POP PUSH3 0x3CA DUP3 PUSH3 0x385 JUMP JUMPDEST PUSH1 0x20 DUP3 ADD SWAP1 POP SWAP2 SWAP1 POP JUMP JUMPDEST PUSH1 0x0 PUSH1 0x20 DUP3 ADD SWAP1 POP DUP2 DUP2 SUB PUSH1 0x0 DUP4 ADD MSTORE PUSH3 0x3F0 DUP2 PUSH3 0x3AE JUMP JUMPDEST SWAP1 POP SWAP2 SWAP1 POP JUMP JUMPDEST PUSH1 0x0 DUP2 SWAP1 POP SWAP2 SWAP1 POP JUMP JUMPDEST PUSH32 0x4E487B7100000000000000000000000000000000000000000000000000000000 PUSH1 0x0 MSTORE PUSH1 0x11 PUSH1 0x4 MSTORE PUSH1 0x24 PUSH1 0x0 REVERT JUMPDEST PUSH1 0x0 PUSH3 0x43D DUP3 PUSH3 0x3F7 JUMP JUMPDEST SWAP2 POP PUSH3 0x44A DUP4 PUSH3 0x3F7 JUMP JUMPDEST SWAP3 POP DUP2 PUSH32 0xFFFFFFFFFFFFFFFFFFFFFFFFFFFFFFFFFFFFFFFFFFFFFFFFFFFFFFFFFFFFFFFF DIV DUP4 GT DUP3 ISZERO ISZERO AND ISZERO PUSH3 0x486 JUMPI PUSH3 0x485 PUSH3 0x401 JUMP JUMPDEST JUMPDEST DUP3 DUP3 MUL SWAP1 POP SWAP3 SWAP2 POP POP JUMP JUMPDEST PUSH32 0x4E487B7100000000000000000000000000000000000000000000000000000000 PUSH1 0x0 MSTORE PUSH1 0x12 PUSH1 0x4 MSTORE PUSH1 0x24 PUSH1 0x0 REVERT JUMPDEST PUSH1 0x0 PUSH3 0x4CD DUP3 PUSH3 0x3F7 JUMP JUMPDEST SWAP2 POP PUSH3 0x4DA DUP4 PUSH3 0x3F7 JUMP JUMPDEST SWAP3 POP DUP3 PUSH3 0x4ED JUMPI PUSH3 0x4EC PUSH3 0x491 JUMP JUMPDEST JUMPDEST DUP3 DUP3 DIV SWAP1 POP SWAP3 SWAP2 POP POP JUMP JUMPDEST PUSH32 0x43616E6E6F74207472616E7366657220746F2073656C66000000000000000000 PUSH1 0x0 DUP3 ADD MSTORE POP JUMP JUMPDEST PUSH1 0x0 PUSH3 0x530 PUSH1 0x17 DUP4 PUSH3 0x374 JUMP JUMPDEST SWAP2 POP PUSH3 0x53D DUP3 PUSH3 0x4F8 JUMP JUMPDEST PUSH1 0x20 DUP3 ADD SWAP1 POP SWAP2 SWAP1 POP JUMP JUMPDEST PUSH1 0x0 PUSH1 0x20 DUP3 ADD SWAP1 POP DUP2 DUP2 SUB PUSH1 0x0 DUP4 ADD MSTORE PUSH3 0x563 DUP2 PUSH3 0x521 JUMP JUMPDEST SWAP1 POP SWAP2 SWAP1 POP JUMP JUMPDEST PUSH2 0x1F95 DUP1 PUSH3 0x57A PUSH1 0x0 CODECOPY PUSH1 0x0 RETURN INVALID PUSH1 0x80 PUSH1 0x40 MSTORE CALLVALUE DUP1 ISZERO PUSH2 0x10 JUMPI PUSH1 0x0 DUP1 REVERT JUMPDEST POP PUSH1 0x4 CALLDATASIZE LT PUSH2 0x7D JUMPI PUSH1 0x0 CALLDATALOAD PUSH1 0xE0 SHR DUP1 PUSH4 0x8DA5CB5B GT PUSH2 0x5B JUMPI DUP1 PUSH4 0x8DA5CB5B EQ PUSH2 0xC6 JUMPI DUP1 PUSH4 0x8DC654A2 EQ PUSH2 0xE4 JUMPI DUP1 PUSH4 0xC618A1E4 EQ PUSH2 0xEE JUMPI DUP1 PUSH4 0xF2FDE38B EQ PUSH2 0x10C JUMPI PUSH2 0x7D JUMP JUMPDEST DUP1 PUSH4 0x4357855E EQ PUSH2 0x82 JUMPI DUP1 PUSH4 0x6021ABAC EQ PUSH2 0x9E JUMPI DUP1 PUSH4 0x79BA5097 EQ PUSH2 0xBC JUMPI JUMPDEST PUSH1 0x0 DUP1 REVERT JUMPDEST PUSH2 0x9C PUSH1 0x4 DUP1 CALLDATASIZE SUB DUP2 ADD SWAP1 PUSH2 0x97 SWAP2 SWAP1 PUSH2 0x140D JUMP JUMPDEST PUSH2 0x128 JUMP JUMPDEST STOP JUMPDEST PUSH2 0xA6 PUSH2 0x271 JUMP JUMPDEST PUSH1 0x40 MLOAD PUSH2 0xB3 SWAP2 SWAP1 PUSH2 0x145C JUMP JUMPDEST PUSH1 0x40 MLOAD DUP1 SWAP2 SUB SWAP1 RETURN JUMPDEST PUSH2 0xC4 PUSH2 0x3D5 JUMP JUMPDEST STOP JUMPDEST PUSH2 0xCE PUSH2 0x56C JUMP JUMPDEST PUSH1 0x40 MLOAD PUSH2 0xDB SWAP2 SWAP1 PUSH2 0x14B8 JUMP JUMPDEST PUSH1 0x40 MLOAD DUP1 SWAP2 SUB SWAP1 RETURN JUMPDEST PUSH2 0xEC PUSH2 0x596 JUMP JUMPDEST STOP JUMPDEST PUSH2 0xF6 PUSH2 0x701 JUMP JUMPDEST PUSH1 0x40 MLOAD PUSH2 0x103 SWAP2 SWAP1 PUSH2 0x14E2 JUMP JUMPDEST PUSH1 0x40 MLOAD DUP1 SWAP2 SUB SWAP1 RETURN JUMPDEST PUSH2 0x126 PUSH1 0x4 DUP1 CALLDATASIZE SUB DUP2 ADD SWAP1 PUSH2 0x121 SWAP2 SWAP1 PUSH2 0x1529 JUMP JUMPDEST PUSH2 0x707 JUMP JUMPDEST STOP JUMPDEST DUP2 PUSH1 0x5 PUSH1 0x0 DUP3 DUP2 MSTORE PUSH1 0x20 ADD SWAP1 DUP2 MSTORE PUSH1 0x20 ADD PUSH1 0x0 KECCAK256 PUSH1 0x0 SWAP1 SLOAD SWAP1 PUSH2 0x100 EXP SWAP1 DIV PUSH20 0xFFFFFFFFFFFFFFFFFFFFFFFFFFFFFFFFFFFFFFFF AND PUSH20 0xFFFFFFFFFFFFFFFFFFFFFFFFFFFFFFFFFFFFFFFF AND CALLER PUSH20 0xFFFFFFFFFFFFFFFFFFFFFFFFFFFFFFFFFFFFFFFF AND EQ PUSH2 0x1CA JUMPI PUSH1 0x40 MLOAD PUSH32 0x8C379A000000000000000000000000000000000000000000000000000000000 DUP2 MSTORE PUSH1 0x4 ADD PUSH2 0x1C1 SWAP1 PUSH2 0x15D9 JUMP JUMPDEST PUSH1 0x40 MLOAD DUP1 SWAP2 SUB SWAP1 REVERT JUMPDEST PUSH1 0x5 PUSH1 0x0 DUP3 DUP2 MSTORE PUSH1 0x20 ADD SWAP1 DUP2 MSTORE PUSH1 0x20 ADD PUSH1 0x0 KECCAK256 PUSH1 0x0 PUSH2 0x100 EXP DUP2 SLOAD SWAP1 PUSH20 0xFFFFFFFFFFFFFFFFFFFFFFFFFFFFFFFFFFFFFFFF MUL NOT AND SWAP1 SSTORE DUP1 PUSH32 0x7CC135E0CEBB02C3480AE5D74D377283180A2601F8F644EDF7987B009316C63A PUSH1 0x40 MLOAD PUSH1 0x40 MLOAD DUP1 SWAP2 SUB SWAP1 LOG2 DUP3 PUSH32 0x673B38182859A514D734BDFCB49D3A05C4A641DEC9311D9894C9717BCB79AF76 DUP4 PUSH1 0x40 MLOAD PUSH2 0x25D SWAP2 SWAP1 PUSH2 0x14E2 JUMP JUMPDEST PUSH1 0x40 MLOAD DUP1 SWAP2 SUB SWAP1 LOG2 DUP2 PUSH1 0x8 DUP2 SWAP1 SSTORE POP POP POP POP JUMP JUMPDEST PUSH1 0x0 DUP1 PUSH2 0x288 PUSH1 0x9 SLOAD ADDRESS PUSH4 0x4357855E PUSH1 0xE0 SHL PUSH2 0x71B JUMP JUMPDEST SWAP1 POP PUSH2 0x2EC PUSH1 0x40 MLOAD DUP1 PUSH1 0x40 ADD PUSH1 0x40 MSTORE DUP1 PUSH1 0x3 DUP2 MSTORE PUSH1 0x20 ADD PUSH32 0x6765740000000000000000000000000000000000000000000000000000000000 DUP2 MSTORE POP PUSH1 0x40 MLOAD DUP1 PUSH1 0x80 ADD PUSH1 0x40 MSTORE DUP1 PUSH1 0x49 DUP2 MSTORE PUSH1 0x20 ADD PUSH2 0x1F17 PUSH1 0x49 SWAP2 CODECOPY DUP4 PUSH2 0x74C SWAP1 SWAP3 SWAP2 SWAP1 PUSH4 0xFFFFFFFF AND JUMP JUMPDEST PUSH2 0x36B PUSH1 0x40 MLOAD DUP1 PUSH1 0x40 ADD PUSH1 0x40 MSTORE DUP1 PUSH1 0x4 DUP2 MSTORE PUSH1 0x20 ADD PUSH32 0x7061746800000000000000000000000000000000000000000000000000000000 DUP2 MSTORE POP PUSH1 0x40 MLOAD DUP1 PUSH1 0x40 ADD PUSH1 0x40 MSTORE DUP1 PUSH1 0x18 DUP2 MSTORE PUSH1 0x20 ADD PUSH32 0x5241572C4554482C5553442C564F4C554D453234484F55520000000000000000 DUP2 MSTORE POP DUP4 PUSH2 0x74C SWAP1 SWAP3 SWAP2 SWAP1 PUSH4 0xFFFFFFFF AND JUMP JUMPDEST PUSH1 0x0 PUSH8 0xDE0B6B3A7640000 SWAP1 POP PUSH2 0x3C2 PUSH1 0x40 MLOAD DUP1 PUSH1 0x40 ADD PUSH1 0x40 MSTORE DUP1 PUSH1 0x5 DUP2 MSTORE PUSH1 0x20 ADD PUSH32 0x74696D6573000000000000000000000000000000000000000000000000000000 DUP2 MSTORE POP DUP3 DUP5 PUSH2 0x77F SWAP1 SWAP3 SWAP2 SWAP1 PUSH4 0xFFFFFFFF AND JUMP JUMPDEST PUSH2 0x3CE DUP3 PUSH1 0xA SLOAD PUSH2 0x7B2 JUMP JUMPDEST SWAP3 POP POP POP SWAP1 JUMP JUMPDEST PUSH1 0x7 PUSH1 0x0 SWAP1 SLOAD SWAP1 PUSH2 0x100 EXP SWAP1 DIV PUSH20 0xFFFFFFFFFFFFFFFFFFFFFFFFFFFFFFFFFFFFFFFF AND PUSH20 0xFFFFFFFFFFFFFFFFFFFFFFFFFFFFFFFFFFFFFFFF AND CALLER PUSH20 0xFFFFFFFFFFFFFFFFFFFFFFFFFFFFFFFFFFFFFFFF AND EQ PUSH2 0x465 JUMPI PUSH1 0x40 MLOAD PUSH32 0x8C379A000000000000000000000000000000000000000000000000000000000 DUP2 MSTORE PUSH1 0x4 ADD PUSH2 0x45C SWAP1 PUSH2 0x1645 JUMP JUMPDEST PUSH1 0x40 MLOAD DUP1 SWAP2 SUB SWAP1 REVERT JUMPDEST PUSH1 0x0 PUSH1 0x6 PUSH1 0x0 SWAP1 SLOAD SWAP1 PUSH2 0x100 EXP SWAP1 DIV PUSH20 0xFFFFFFFFFFFFFFFFFFFFFFFFFFFFFFFFFFFFFFFF AND SWAP1 POP CALLER PUSH1 0x6 PUSH1 0x0 PUSH2 0x100 EXP DUP2 SLOAD DUP2 PUSH20 0xFFFFFFFFFFFFFFFFFFFFFFFFFFFFFFFFFFFFFFFF MUL NOT AND SWAP1 DUP4 PUSH20 0xFFFFFFFFFFFFFFFFFFFFFFFFFFFFFFFFFFFFFFFF AND MUL OR SWAP1 SSTORE POP PUSH1 0x0 PUSH1 0x7 PUSH1 0x0 PUSH2 0x100 EXP DUP2 SLOAD DUP2 PUSH20 0xFFFFFFFFFFFFFFFFFFFFFFFFFFFFFFFFFFFFFFFF MUL NOT AND SWAP1 DUP4 PUSH20 0xFFFFFFFFFFFFFFFFFFFFFFFFFFFFFFFFFFFFFFFF AND MUL OR SWAP1 SSTORE POP CALLER PUSH20 0xFFFFFFFFFFFFFFFFFFFFFFFFFFFFFFFFFFFFFFFF AND DUP2 PUSH20 0xFFFFFFFFFFFFFFFFFFFFFFFFFFFFFFFFFFFFFFFF AND PUSH32 0x8BE0079C531659141344CD1FD0A4F28419497F9722A3DAAFE3B4186F6B6457E0 PUSH1 0x40 MLOAD PUSH1 0x40 MLOAD DUP1 SWAP2 SUB SWAP1 LOG3 POP JUMP JUMPDEST PUSH1 0x0 PUSH1 0x6 PUSH1 0x0 SWAP1 SLOAD SWAP1 PUSH2 0x100 EXP SWAP1 DIV PUSH20 0xFFFFFFFFFFFFFFFFFFFFFFFFFFFFFFFFFFFFFFFF AND SWAP1 POP SWAP1 JUMP JUMPDEST PUSH2 0x59E PUSH2 0x7E9 JUMP JUMPDEST PUSH1 0x0 PUSH2 0x5A8 PUSH2 0x87B JUMP JUMPDEST SWAP1 POP DUP1 PUSH20 0xFFFFFFFFFFFFFFFFFFFFFFFFFFFFFFFFFFFFFFFF AND PUSH4 0xA9059CBB CALLER DUP4 PUSH20 0xFFFFFFFFFFFFFFFFFFFFFFFFFFFFFFFFFFFFFFFF AND PUSH4 0x70A08231 ADDRESS PUSH1 0x40 MLOAD DUP3 PUSH4 0xFFFFFFFF AND PUSH1 0xE0 SHL DUP2 MSTORE PUSH1 0x4 ADD PUSH2 0x600 SWAP2 SWAP1 PUSH2 0x14B8 JUMP JUMPDEST PUSH1 0x20 PUSH1 0x40 MLOAD DUP1 DUP4 SUB DUP2 DUP7 DUP1 EXTCODESIZE ISZERO DUP1 ISZERO PUSH2 0x618 JUMPI PUSH1 0x0 DUP1 REVERT JUMPDEST POP GAS STATICCALL ISZERO DUP1 ISZERO PUSH2 0x62C JUMPI RETURNDATASIZE PUSH1 0x0 DUP1 RETURNDATACOPY RETURNDATASIZE PUSH1 0x0 REVERT JUMPDEST POP POP POP POP PUSH1 0x40 MLOAD RETURNDATASIZE PUSH1 0x1F NOT PUSH1 0x1F DUP3 ADD AND DUP3 ADD DUP1 PUSH1 0x40 MSTORE POP DUP2 ADD SWAP1 PUSH2 0x650 SWAP2 SWAP1 PUSH2 0x167A JUMP JUMPDEST PUSH1 0x40 MLOAD DUP4 PUSH4 0xFFFFFFFF AND PUSH1 0xE0 SHL DUP2 MSTORE PUSH1 0x4 ADD PUSH2 0x66D SWAP3 SWAP2 SWAP1 PUSH2 0x16A7 JUMP JUMPDEST PUSH1 0x20 PUSH1 0x40 MLOAD DUP1 DUP4 SUB DUP2 PUSH1 0x0 DUP8 DUP1 EXTCODESIZE ISZERO DUP1 ISZERO PUSH2 0x687 JUMPI PUSH1 0x0 DUP1 REVERT JUMPDEST POP GAS CALL ISZERO DUP1 ISZERO PUSH2 0x69B JUMPI RETURNDATASIZE PUSH1 0x0 DUP1 RETURNDATACOPY RETURNDATASIZE PUSH1 0x0 REVERT JUMPDEST POP POP POP POP PUSH1 0x40 MLOAD RETURNDATASIZE PUSH1 0x1F NOT PUSH1 0x1F DUP3 ADD AND DUP3 ADD DUP1 PUSH1 0x40 MSTORE POP DUP2 ADD SWAP1 PUSH2 0x6BF SWAP2 SWAP1 PUSH2 0x1708 JUMP JUMPDEST PUSH2 0x6FE JUMPI PUSH1 0x40 MLOAD PUSH32 0x8C379A000000000000000000000000000000000000000000000000000000000 DUP2 MSTORE PUSH1 0x4 ADD PUSH2 0x6F5 SWAP1 PUSH2 0x1781 JUMP JUMPDEST PUSH1 0x40 MLOAD DUP1 SWAP2 SUB SWAP1 REVERT JUMPDEST POP JUMP JUMPDEST PUSH1 0x8 SLOAD DUP2 JUMP JUMPDEST PUSH2 0x70F PUSH2 0x7E9 JUMP JUMPDEST PUSH2 0x718 DUP2 PUSH2 0x8A5 JUMP JUMPDEST POP JUMP JUMPDEST PUSH2 0x723 PUSH2 0x1315 JUMP JUMPDEST PUSH2 0x72B PUSH2 0x1315 JUMP JUMPDEST PUSH2 0x742 DUP6 DUP6 DUP6 DUP5 PUSH2 0x9D4 SWAP1 SWAP4 SWAP3 SWAP2 SWAP1 PUSH4 0xFFFFFFFF AND JUMP JUMPDEST SWAP2 POP POP SWAP4 SWAP3 POP POP POP JUMP JUMPDEST PUSH2 0x763 DUP3 DUP5 PUSH1 0x80 ADD MLOAD PUSH2 0xA84 SWAP1 SWAP2 SWAP1 PUSH4 0xFFFFFFFF AND JUMP JUMPDEST PUSH2 0x77A DUP2 DUP5 PUSH1 0x80 ADD MLOAD PUSH2 0xA84 SWAP1 SWAP2 SWAP1 PUSH4 0xFFFFFFFF AND JUMP JUMPDEST POP POP POP JUMP JUMPDEST PUSH2 0x796 DUP3 DUP5 PUSH1 0x80 ADD MLOAD PUSH2 0xA84 SWAP1 SWAP2 SWAP1 PUSH4 0xFFFFFFFF AND JUMP JUMPDEST PUSH2 0x7AD DUP2 DUP5 PUSH1 0x80 ADD MLOAD PUSH2 0xAA9 SWAP1 SWAP2 SWAP1 PUSH4 0xFFFFFFFF AND JUMP JUMPDEST POP POP POP JUMP JUMPDEST PUSH1 0x0 PUSH2 0x7E1 PUSH1 0x3 PUSH1 0x0 SWAP1 SLOAD SWAP1 PUSH2 0x100 EXP SWAP1 DIV PUSH20 0xFFFFFFFFFFFFFFFFFFFFFFFFFFFFFFFFFFFFFFFF AND DUP5 DUP5 PUSH2 0xB56 JUMP JUMPDEST SWAP1 POP SWAP3 SWAP2 POP POP JUMP JUMPDEST PUSH1 0x6 PUSH1 0x0 SWAP1 SLOAD SWAP1 PUSH2 0x100 EXP SWAP1 DIV PUSH20 0xFFFFFFFFFFFFFFFFFFFFFFFFFFFFFFFFFFFFFFFF AND PUSH20 0xFFFFFFFFFFFFFFFFFFFFFFFFFFFFFFFFFFFFFFFF AND CALLER PUSH20 0xFFFFFFFFFFFFFFFFFFFFFFFFFFFFFFFFFFFFFFFF AND EQ PUSH2 0x879 JUMPI PUSH1 0x40 MLOAD PUSH32 0x8C379A000000000000000000000000000000000000000000000000000000000 DUP2 MSTORE PUSH1 0x4 ADD PUSH2 0x870 SWAP1 PUSH2 0x17ED JUMP JUMPDEST PUSH1 0x40 MLOAD DUP1 SWAP2 SUB SWAP1 REVERT JUMPDEST JUMP JUMPDEST PUSH1 0x0 PUSH1 0x2 PUSH1 0x0 SWAP1 SLOAD SWAP1 PUSH2 0x100 EXP SWAP1 DIV PUSH20 0xFFFFFFFFFFFFFFFFFFFFFFFFFFFFFFFFFFFFFFFF AND SWAP1 POP SWAP1 JUMP JUMPDEST CALLER PUSH20 0xFFFFFFFFFFFFFFFFFFFFFFFFFFFFFFFFFFFFFFFF AND DUP2 PUSH20 0xFFFFFFFFFFFFFFFFFFFFFFFFFFFFFFFFFFFFFFFF AND EQ ISZERO PUSH2 0x914 JUMPI PUSH1 0x40 MLOAD PUSH32 0x8C379A000000000000000000000000000000000000000000000000000000000 DUP2 MSTORE PUSH1 0x4 ADD PUSH2 0x90B SWAP1 PUSH2 0x1859 JUMP JUMPDEST PUSH1 0x40 MLOAD DUP1 SWAP2 SUB SWAP1 REVERT JUMPDEST DUP1 PUSH1 0x7 PUSH1 0x0 PUSH2 0x100 EXP DUP2 SLOAD DUP2 PUSH20 0xFFFFFFFFFFFFFFFFFFFFFFFFFFFFFFFFFFFFFFFF MUL NOT AND SWAP1 DUP4 PUSH20 0xFFFFFFFFFFFFFFFFFFFFFFFFFFFFFFFFFFFFFFFF AND MUL OR SWAP1 SSTORE POP DUP1 PUSH20 0xFFFFFFFFFFFFFFFFFFFFFFFFFFFFFFFFFFFFFFFF AND PUSH1 0x6 PUSH1 0x0 SWAP1 SLOAD SWAP1 PUSH2 0x100 EXP SWAP1 DIV PUSH20 0xFFFFFFFFFFFFFFFFFFFFFFFFFFFFFFFFFFFFFFFF AND PUSH20 0xFFFFFFFFFFFFFFFFFFFFFFFFFFFFFFFFFFFFFFFF AND PUSH32 0xED8889F560326EB138920D842192F0EB3DD22B4F139C87A2C57538E05BAE1278 PUSH1 0x40 MLOAD PUSH1 0x40 MLOAD DUP1 SWAP2 SUB SWAP1 LOG3 POP JUMP JUMPDEST PUSH2 0x9DC PUSH2 0x1315 JUMP JUMPDEST PUSH2 0x9EC DUP6 PUSH1 0x80 ADD MLOAD PUSH2 0x100 PUSH2 0xC22 JUMP JUMPDEST POP DUP4 DUP6 PUSH1 0x0 ADD DUP2 DUP2 MSTORE POP POP DUP3 DUP6 PUSH1 0x20 ADD SWAP1 PUSH20 0xFFFFFFFFFFFFFFFFFFFFFFFFFFFFFFFFFFFFFFFF AND SWAP1 DUP2 PUSH20 0xFFFFFFFFFFFFFFFFFFFFFFFFFFFFFFFFFFFFFFFF AND DUP2 MSTORE POP POP DUP2 DUP6 PUSH1 0x40 ADD SWAP1 PUSH28 0xFFFFFFFFFFFFFFFFFFFFFFFFFFFFFFFFFFFFFFFFFFFFFFFFFFFFFFFF NOT AND SWAP1 DUP2 PUSH28 0xFFFFFFFFFFFFFFFFFFFFFFFFFFFFFFFFFFFFFFFFFFFFFFFFFFFFFFFF NOT AND DUP2 MSTORE POP POP DUP5 SWAP1 POP SWAP5 SWAP4 POP POP POP POP JUMP JUMPDEST PUSH2 0xA91 DUP3 PUSH1 0x3 DUP4 MLOAD PUSH2 0xC8C JUMP JUMPDEST PUSH2 0xAA4 DUP2 DUP4 PUSH2 0xE11 SWAP1 SWAP2 SWAP1 PUSH4 0xFFFFFFFF AND JUMP JUMPDEST POP POP POP JUMP JUMPDEST PUSH32 0xFFFFFFFFFFFFFFFFFFFFFFFFFFFFFFFFFFFFFFFFFFFFFFFF0000000000000000 DUP2 SLT ISZERO PUSH2 0xAE0 JUMPI PUSH2 0xADB DUP3 DUP3 PUSH2 0xE33 JUMP JUMPDEST PUSH2 0xB52 JUMP JUMPDEST PUSH8 0xFFFFFFFFFFFFFFFF DUP2 SGT ISZERO PUSH2 0xAFF JUMPI PUSH2 0xAFA DUP3 DUP3 PUSH2 0xEAA JUMP JUMPDEST PUSH2 0xB51 JUMP JUMPDEST PUSH1 0x0 DUP2 SLT PUSH2 0xB18 JUMPI PUSH2 0xB13 DUP3 PUSH1 0x0 DUP4 PUSH2 0xC8C JUMP JUMPDEST PUSH2 0xB50 JUMP JUMPDEST PUSH2 0xB4F DUP3 PUSH1 0x1 DUP4 PUSH32 0xFFFFFFFFFFFFFFFFFFFFFFFFFFFFFFFFFFFFFFFFFFFFFFFFFFFFFFFFFFFFFFFF PUSH2 0xB4A SWAP2 SWAP1 PUSH2 0x18B2 JUMP JUMPDEST PUSH2 0xC8C JUMP JUMPDEST JUMPDEST JUMPDEST JUMPDEST POP POP JUMP JUMPDEST PUSH1 0x0 DUP1 PUSH1 0x4 SLOAD SWAP1 POP PUSH1 0x1 DUP2 PUSH2 0xB6B SWAP2 SWAP1 PUSH2 0x1946 JUMP JUMPDEST PUSH1 0x4 DUP2 SWAP1 SSTORE POP PUSH1 0x0 PUSH4 0x40429946 PUSH1 0xE0 SHL PUSH1 0x0 DUP1 DUP8 PUSH1 0x0 ADD MLOAD ADDRESS DUP10 PUSH1 0x40 ADD MLOAD DUP8 PUSH1 0x1 DUP13 PUSH1 0x80 ADD MLOAD PUSH1 0x0 ADD MLOAD PUSH1 0x40 MLOAD PUSH1 0x24 ADD PUSH2 0xBAC SWAP9 SWAP8 SWAP7 SWAP6 SWAP5 SWAP4 SWAP3 SWAP2 SWAP1 PUSH2 0x1A70 JUMP JUMPDEST PUSH1 0x40 MLOAD PUSH1 0x20 DUP2 DUP4 SUB SUB DUP2 MSTORE SWAP1 PUSH1 0x40 MSTORE SWAP1 PUSH28 0xFFFFFFFFFFFFFFFFFFFFFFFFFFFFFFFFFFFFFFFFFFFFFFFFFFFFFFFF NOT AND PUSH1 0x20 DUP3 ADD DUP1 MLOAD PUSH28 0xFFFFFFFFFFFFFFFFFFFFFFFFFFFFFFFFFFFFFFFFFFFFFFFFFFFFFFFF DUP4 DUP2 DUP4 AND OR DUP4 MSTORE POP POP POP POP SWAP1 POP PUSH2 0xC17 DUP7 DUP4 DUP7 DUP5 PUSH2 0xEF6 JUMP JUMPDEST SWAP3 POP POP POP SWAP4 SWAP3 POP POP POP JUMP JUMPDEST PUSH2 0xC2A PUSH2 0x1382 JUMP JUMPDEST PUSH1 0x0 PUSH1 0x20 DUP4 PUSH2 0xC39 SWAP2 SWAP1 PUSH2 0x1B24 JUMP JUMPDEST EQ PUSH2 0xC65 JUMPI PUSH1 0x20 DUP3 PUSH2 0xC4B SWAP2 SWAP1 PUSH2 0x1B24 JUMP JUMPDEST PUSH1 0x20 PUSH2 0xC57 SWAP2 SWAP1 PUSH2 0x1B55 JUMP JUMPDEST DUP3 PUSH2 0xC62 SWAP2 SWAP1 PUSH2 0x1946 JUMP JUMPDEST SWAP2 POP JUMPDEST DUP2 DUP4 PUSH1 0x20 ADD DUP2 DUP2 MSTORE POP POP PUSH1 0x40 MLOAD DUP1 DUP5 MSTORE PUSH1 0x0 DUP2 MSTORE DUP3 DUP2 ADD PUSH1 0x20 ADD PUSH1 0x40 MSTORE POP DUP3 SWAP1 POP SWAP3 SWAP2 POP POP JUMP JUMPDEST PUSH1 0x17 DUP2 PUSH8 0xFFFFFFFFFFFFFFFF AND GT PUSH2 0xCC3 JUMPI PUSH2 0xCBD DUP2 PUSH1 0x5 DUP5 PUSH1 0xFF AND SWAP1 SHL PUSH1 0xFF AND OR DUP5 PUSH2 0x109A SWAP1 SWAP2 SWAP1 PUSH4 0xFFFFFFFF AND JUMP JUMPDEST POP PUSH2 0xE0C JUMP JUMPDEST PUSH1 0xFF DUP2 PUSH8 0xFFFFFFFFFFFFFFFF AND GT PUSH2 0xD19 JUMPI PUSH2 0xCF2 PUSH1 0x18 PUSH1 0x5 DUP5 PUSH1 0xFF AND SWAP1 SHL OR DUP5 PUSH2 0x109A SWAP1 SWAP2 SWAP1 PUSH4 0xFFFFFFFF AND JUMP JUMPDEST POP PUSH2 0xD13 DUP2 PUSH8 0xFFFFFFFFFFFFFFFF AND PUSH1 0x1 DUP6 PUSH2 0x10BA SWAP1 SWAP3 SWAP2 SWAP1 PUSH4 0xFFFFFFFF AND JUMP JUMPDEST POP PUSH2 0xE0B JUMP JUMPDEST PUSH2 0xFFFF DUP2 PUSH8 0xFFFFFFFFFFFFFFFF AND GT PUSH2 0xD70 JUMPI PUSH2 0xD49 PUSH1 0x19 PUSH1 0x5 DUP5 PUSH1 0xFF AND SWAP1 SHL OR DUP5 PUSH2 0x109A SWAP1 SWAP2 SWAP1 PUSH4 0xFFFFFFFF AND JUMP JUMPDEST POP PUSH2 0xD6A DUP2 PUSH8 0xFFFFFFFFFFFFFFFF AND PUSH1 0x2 DUP6 PUSH2 0x10BA SWAP1 SWAP3 SWAP2 SWAP1 PUSH4 0xFFFFFFFF AND JUMP JUMPDEST POP PUSH2 0xE0A JUMP JUMPDEST PUSH4 0xFFFFFFFF DUP2 PUSH8 0xFFFFFFFFFFFFFFFF AND GT PUSH2 0xDC9 JUMPI PUSH2 0xDA2 PUSH1 0x1A PUSH1 0x5 DUP5 PUSH1 0xFF AND SWAP1 SHL OR DUP5 PUSH2 0x109A SWAP1 SWAP2 SWAP1 PUSH4 0xFFFFFFFF AND JUMP JUMPDEST POP PUSH2 0xDC3 DUP2 PUSH8 0xFFFFFFFFFFFFFFFF AND PUSH1 0x4 DUP6 PUSH2 0x10BA SWAP1 SWAP3 SWAP2 SWAP1 PUSH4 0xFFFFFFFF AND JUMP JUMPDEST POP PUSH2 0xE09 JUMP JUMPDEST PUSH2 0xDE6 PUSH1 0x1B PUSH1 0x5 DUP5 PUSH1 0xFF AND SWAP1 SHL OR DUP5 PUSH2 0x109A SWAP1 SWAP2 SWAP1 PUSH4 0xFFFFFFFF AND JUMP JUMPDEST POP PUSH2 0xE07 DUP2 PUSH8 0xFFFFFFFFFFFFFFFF AND PUSH1 0x8 DUP6 PUSH2 0x10BA SWAP1 SWAP3 SWAP2 SWAP1 PUSH4 0xFFFFFFFF AND JUMP JUMPDEST POP JUMPDEST JUMPDEST JUMPDEST JUMPDEST POP POP POP JUMP JUMPDEST PUSH2 0xE19 PUSH2 0x1382 JUMP JUMPDEST PUSH2 0xE2B DUP4 DUP5 PUSH1 0x0 ADD MLOAD MLOAD DUP5 DUP6 MLOAD PUSH2 0x10DC JUMP JUMPDEST SWAP1 POP SWAP3 SWAP2 POP POP JUMP JUMPDEST PUSH2 0xE51 PUSH1 0x3 PUSH1 0x5 PUSH1 0x6 PUSH1 0xFF AND SWAP1 SHL OR DUP4 PUSH2 0x109A SWAP1 SWAP2 SWAP1 PUSH4 0xFFFFFFFF AND JUMP JUMPDEST POP PUSH2 0xEA6 DUP3 DUP3 PUSH32 0xFFFFFFFFFFFFFFFFFFFFFFFFFFFFFFFFFFFFFFFFFFFFFFFFFFFFFFFFFFFFFFFF PUSH2 0xE82 SWAP2 SWAP1 PUSH2 0x18B2 JUMP JUMPDEST PUSH1 0x40 MLOAD PUSH1 0x20 ADD PUSH2 0xE92 SWAP2 SWAP1 PUSH2 0x14E2 JUMP JUMPDEST PUSH1 0x40 MLOAD PUSH1 0x20 DUP2 DUP4 SUB SUB DUP2 MSTORE SWAP1 PUSH1 0x40 MSTORE PUSH2 0x11CB JUMP JUMPDEST POP POP JUMP JUMPDEST PUSH2 0xEC8 PUSH1 0x2 PUSH1 0x5 PUSH1 0x6 PUSH1 0xFF AND SWAP1 SHL OR DUP4 PUSH2 0x109A SWAP1 SWAP2 SWAP1 PUSH4 0xFFFFFFFF AND JUMP JUMPDEST POP PUSH2 0xEF2 DUP3 DUP3 PUSH1 0x40 MLOAD PUSH1 0x20 ADD PUSH2 0xEDE SWAP2 SWAP1 PUSH2 0x14E2 JUMP JUMPDEST PUSH1 0x40 MLOAD PUSH1 0x20 DUP2 DUP4 SUB SUB DUP2 MSTORE SWAP1 PUSH1 0x40 MSTORE PUSH2 0x11CB JUMP JUMPDEST POP POP JUMP JUMPDEST PUSH1 0x0 ADDRESS DUP5 PUSH1 0x40 MLOAD PUSH1 0x20 ADD PUSH2 0xF0B SWAP3 SWAP2 SWAP1 PUSH2 0x1C42 JUMP JUMPDEST PUSH1 0x40 MLOAD PUSH1 0x20 DUP2 DUP4 SUB SUB DUP2 MSTORE SWAP1 PUSH1 0x40 MSTORE DUP1 MLOAD SWAP1 PUSH1 0x20 ADD KECCAK256 SWAP1 POP DUP5 PUSH1 0x5 PUSH1 0x0 DUP4 DUP2 MSTORE PUSH1 0x20 ADD SWAP1 DUP2 MSTORE PUSH1 0x20 ADD PUSH1 0x0 KECCAK256 PUSH1 0x0 PUSH2 0x100 EXP DUP2 SLOAD DUP2 PUSH20 0xFFFFFFFFFFFFFFFFFFFFFFFFFFFFFFFFFFFFFFFF MUL NOT AND SWAP1 DUP4 PUSH20 0xFFFFFFFFFFFFFFFFFFFFFFFFFFFFFFFFFFFFFFFF AND MUL OR SWAP1 SSTORE POP DUP1 PUSH32 0xB5E6E01E79F91267DC17B4E6314D5D4D03593D2CEEE0FBB452B750BD70EA5AF9 PUSH1 0x40 MLOAD PUSH1 0x40 MLOAD DUP1 SWAP2 SUB SWAP1 LOG2 PUSH1 0x2 PUSH1 0x0 SWAP1 SLOAD SWAP1 PUSH2 0x100 EXP SWAP1 DIV PUSH20 0xFFFFFFFFFFFFFFFFFFFFFFFFFFFFFFFFFFFFFFFF AND PUSH20 0xFFFFFFFFFFFFFFFFFFFFFFFFFFFFFFFFFFFFFFFF AND PUSH4 0x4000AEA0 DUP7 DUP6 DUP6 PUSH1 0x40 MLOAD DUP5 PUSH4 0xFFFFFFFF AND PUSH1 0xE0 SHL DUP2 MSTORE PUSH1 0x4 ADD PUSH2 0x1001 SWAP4 SWAP3 SWAP2 SWAP1 PUSH2 0x1C6E JUMP JUMPDEST PUSH1 0x20 PUSH1 0x40 MLOAD DUP1 DUP4 SUB DUP2 PUSH1 0x0 DUP8 DUP1 EXTCODESIZE ISZERO DUP1 ISZERO PUSH2 0x101B JUMPI PUSH1 0x0 DUP1 REVERT JUMPDEST POP GAS CALL ISZERO DUP1 ISZERO PUSH2 0x102F JUMPI RETURNDATASIZE PUSH1 0x0 DUP1 RETURNDATACOPY RETURNDATASIZE PUSH1 0x0 REVERT JUMPDEST POP POP POP POP PUSH1 0x40 MLOAD RETURNDATASIZE PUSH1 0x1F NOT PUSH1 0x1F DUP3 ADD AND DUP3 ADD DUP1 PUSH1 0x40 MSTORE POP DUP2 ADD SWAP1 PUSH2 0x1053 SWAP2 SWAP1 PUSH2 0x1708 JUMP JUMPDEST PUSH2 0x1092 JUMPI PUSH1 0x40 MLOAD PUSH32 0x8C379A000000000000000000000000000000000000000000000000000000000 DUP2 MSTORE PUSH1 0x4 ADD PUSH2 0x1089 SWAP1 PUSH2 0x1D1E JUMP JUMPDEST PUSH1 0x40 MLOAD DUP1 SWAP2 SUB SWAP1 REVERT JUMPDEST SWAP5 SWAP4 POP POP POP POP JUMP JUMPDEST PUSH2 0x10A2 PUSH2 0x1382 JUMP JUMPDEST PUSH2 0x10B2 DUP4 DUP5 PUSH1 0x0 ADD MLOAD MLOAD DUP5 PUSH2 0x11F0 JUMP JUMPDEST SWAP1 POP SWAP3 SWAP2 POP POP JUMP JUMPDEST PUSH2 0x10C2 PUSH2 0x1382 JUMP JUMPDEST PUSH2 0x10D3 DUP5 DUP6 PUSH1 0x0 ADD MLOAD MLOAD DUP6 DUP6 PUSH2 0x1247 JUMP JUMPDEST SWAP1 POP SWAP4 SWAP3 POP POP POP JUMP JUMPDEST PUSH2 0x10E4 PUSH2 0x1382 JUMP JUMPDEST DUP3 MLOAD DUP3 GT ISZERO PUSH2 0x10F2 JUMPI PUSH1 0x0 DUP1 REVERT JUMPDEST DUP5 PUSH1 0x20 ADD MLOAD DUP3 DUP6 PUSH2 0x1103 SWAP2 SWAP1 PUSH2 0x1946 JUMP JUMPDEST GT ISZERO PUSH2 0x1138 JUMPI PUSH2 0x1137 DUP6 PUSH1 0x2 PUSH2 0x1128 DUP9 PUSH1 0x20 ADD MLOAD DUP9 DUP8 PUSH2 0x1123 SWAP2 SWAP1 PUSH2 0x1946 JUMP JUMPDEST PUSH2 0x12D5 JUMP JUMPDEST PUSH2 0x1132 SWAP2 SWAP1 PUSH2 0x1D3E JUMP JUMPDEST PUSH2 0x12F1 JUMP JUMPDEST JUMPDEST PUSH1 0x0 DUP1 DUP7 MLOAD DUP1 MLOAD DUP8 PUSH1 0x20 DUP4 ADD ADD SWAP4 POP DUP1 DUP9 DUP8 ADD GT ISZERO PUSH2 0x1157 JUMPI DUP8 DUP7 ADD DUP3 MSTORE JUMPDEST PUSH1 0x20 DUP8 ADD SWAP3 POP POP POP JUMPDEST PUSH1 0x20 DUP5 LT PUSH2 0x119E JUMPI DUP1 MLOAD DUP3 MSTORE PUSH1 0x20 DUP3 PUSH2 0x1179 SWAP2 SWAP1 PUSH2 0x1946 JUMP JUMPDEST SWAP2 POP PUSH1 0x20 DUP2 PUSH2 0x1188 SWAP2 SWAP1 PUSH2 0x1946 JUMP JUMPDEST SWAP1 POP PUSH1 0x20 DUP5 PUSH2 0x1197 SWAP2 SWAP1 PUSH2 0x1B55 JUMP JUMPDEST SWAP4 POP PUSH2 0x1160 JUMP JUMPDEST PUSH1 0x0 PUSH1 0x1 DUP6 PUSH1 0x20 SUB PUSH2 0x100 EXP SUB SWAP1 POP DUP1 NOT DUP3 MLOAD AND DUP2 DUP5 MLOAD AND DUP2 DUP2 OR DUP6 MSTORE POP POP POP DUP7 SWAP3 POP POP POP SWAP5 SWAP4 POP POP POP POP JUMP JUMPDEST PUSH2 0x11D8 DUP3 PUSH1 0x2 DUP4 MLOAD PUSH2 0xC8C JUMP JUMPDEST PUSH2 0x11EB DUP2 DUP4 PUSH2 0xE11 SWAP1 SWAP2 SWAP1 PUSH4 0xFFFFFFFF AND JUMP JUMPDEST POP POP POP JUMP JUMPDEST PUSH2 0x11F8 PUSH2 0x1382 JUMP JUMPDEST DUP4 PUSH1 0x20 ADD MLOAD DUP4 LT PUSH2 0x121E JUMPI PUSH2 0x121D DUP5 PUSH1 0x2 DUP7 PUSH1 0x20 ADD MLOAD PUSH2 0x1218 SWAP2 SWAP1 PUSH2 0x1D3E JUMP JUMPDEST PUSH2 0x12F1 JUMP JUMPDEST JUMPDEST DUP4 MLOAD DUP1 MLOAD PUSH1 0x20 DUP6 DUP4 ADD ADD DUP5 DUP2 MSTORE8 DUP2 DUP7 EQ ISZERO PUSH2 0x123A JUMPI PUSH1 0x1 DUP3 ADD DUP4 MSTORE JUMPDEST POP POP POP DUP4 SWAP1 POP SWAP4 SWAP3 POP POP POP JUMP JUMPDEST PUSH2 0x124F PUSH2 0x1382 JUMP JUMPDEST DUP5 PUSH1 0x20 ADD MLOAD DUP5 DUP4 PUSH2 0x1260 SWAP2 SWAP1 PUSH2 0x1946 JUMP JUMPDEST GT ISZERO PUSH2 0x1288 JUMPI PUSH2 0x1287 DUP6 PUSH1 0x2 DUP7 DUP6 PUSH2 0x1278 SWAP2 SWAP1 PUSH2 0x1946 JUMP JUMPDEST PUSH2 0x1282 SWAP2 SWAP1 PUSH2 0x1D3E JUMP JUMPDEST PUSH2 0x12F1 JUMP JUMPDEST JUMPDEST PUSH1 0x0 PUSH1 0x1 DUP4 PUSH2 0x100 PUSH2 0x129A SWAP2 SWAP1 PUSH2 0x1ECB JUMP JUMPDEST PUSH2 0x12A4 SWAP2 SWAP1 PUSH2 0x1B55 JUMP JUMPDEST SWAP1 POP DUP6 MLOAD DUP4 DUP7 DUP3 ADD ADD DUP6 DUP4 NOT DUP3 MLOAD AND OR DUP2 MSTORE DUP2 MLOAD DUP6 DUP9 ADD GT ISZERO PUSH2 0x12C7 JUMPI DUP5 DUP8 ADD DUP3 MSTORE JUMPDEST POP POP DUP6 SWAP2 POP POP SWAP5 SWAP4 POP POP POP POP JUMP JUMPDEST PUSH1 0x0 DUP2 DUP4 GT ISZERO PUSH2 0x12E7 JUMPI DUP3 SWAP1 POP PUSH2 0x12EB JUMP JUMPDEST DUP2 SWAP1 POP JUMPDEST SWAP3 SWAP2 POP POP JUMP JUMPDEST PUSH1 0x0 DUP3 PUSH1 0x0 ADD MLOAD SWAP1 POP PUSH2 0x1304 DUP4 DUP4 PUSH2 0xC22 JUMP JUMPDEST POP PUSH2 0x130F DUP4 DUP3 PUSH2 0xE11 JUMP JUMPDEST POP POP POP POP JUMP JUMPDEST PUSH1 0x40 MLOAD DUP1 PUSH1 0xA0 ADD PUSH1 0x40 MSTORE DUP1 PUSH1 0x0 DUP1 NOT AND DUP2 MSTORE PUSH1 0x20 ADD PUSH1 0x0 PUSH20 0xFFFFFFFFFFFFFFFFFFFFFFFFFFFFFFFFFFFFFFFF AND DUP2 MSTORE PUSH1 0x20 ADD PUSH1 0x0 PUSH28 0xFFFFFFFFFFFFFFFFFFFFFFFFFFFFFFFFFFFFFFFFFFFFFFFFFFFFFFFF NOT AND DUP2 MSTORE PUSH1 0x20 ADD PUSH1 0x0 DUP2 MSTORE PUSH1 0x20 ADD PUSH2 0x137C PUSH2 0x1382 JUMP JUMPDEST DUP2 MSTORE POP SWAP1 JUMP JUMPDEST PUSH1 0x40 MLOAD DUP1 PUSH1 0x40 ADD PUSH1 0x40 MSTORE DUP1 PUSH1 0x60 DUP2 MSTORE PUSH1 0x20 ADD PUSH1 0x0 DUP2 MSTORE POP SWAP1 JUMP JUMPDEST PUSH1 0x0 DUP1 REVERT JUMPDEST PUSH1 0x0 DUP2 SWAP1 POP SWAP2 SWAP1 POP JUMP JUMPDEST PUSH2 0x13B4 DUP2 PUSH2 0x13A1 JUMP JUMPDEST DUP2 EQ PUSH2 0x13BF JUMPI PUSH1 0x0 DUP1 REVERT JUMPDEST POP JUMP JUMPDEST PUSH1 0x0 DUP2 CALLDATALOAD SWAP1 POP PUSH2 0x13D1 DUP2 PUSH2 0x13AB JUMP JUMPDEST SWAP3 SWAP2 POP POP JUMP JUMPDEST PUSH1 0x0 DUP2 SWAP1 POP SWAP2 SWAP1 POP JUMP JUMPDEST PUSH2 0x13EA DUP2 PUSH2 0x13D7 JUMP JUMPDEST DUP2 EQ PUSH2 0x13F5 JUMPI PUSH1 0x0 DUP1 REVERT JUMPDEST POP JUMP JUMPDEST PUSH1 0x0 DUP2 CALLDATALOAD SWAP1 POP PUSH2 0x1407 DUP2 PUSH2 0x13E1 JUMP JUMPDEST SWAP3 SWAP2 POP POP JUMP JUMPDEST PUSH1 0x0 DUP1 PUSH1 0x40 DUP4 DUP6 SUB SLT ISZERO PUSH2 0x1424 JUMPI PUSH2 0x1423 PUSH2 0x139C JUMP JUMPDEST JUMPDEST PUSH1 0x0 PUSH2 0x1432 DUP6 DUP3 DUP7 ADD PUSH2 0x13C2 JUMP JUMPDEST SWAP3 POP POP PUSH1 0x20 PUSH2 0x1443 DUP6 DUP3 DUP7 ADD PUSH2 0x13F8 JUMP JUMPDEST SWAP2 POP POP SWAP3 POP SWAP3 SWAP1 POP JUMP JUMPDEST PUSH2 0x1456 DUP2 PUSH2 0x13A1 JUMP JUMPDEST DUP3 MSTORE POP POP JUMP JUMPDEST PUSH1 0x0 PUSH1 0x20 DUP3 ADD SWAP1 POP PUSH2 0x1471 PUSH1 0x0 DUP4 ADD DUP5 PUSH2 0x144D JUMP JUMPDEST SWAP3 SWAP2 POP POP JUMP JUMPDEST PUSH1 0x0 PUSH20 0xFFFFFFFFFFFFFFFFFFFFFFFFFFFFFFFFFFFFFFFF DUP3 AND SWAP1 POP SWAP2 SWAP1 POP JUMP JUMPDEST PUSH1 0x0 PUSH2 0x14A2 DUP3 PUSH2 0x1477 JUMP JUMPDEST SWAP1 POP SWAP2 SWAP1 POP JUMP JUMPDEST PUSH2 0x14B2 DUP2 PUSH2 0x1497 JUMP JUMPDEST DUP3 MSTORE POP POP JUMP JUMPDEST PUSH1 0x0 PUSH1 0x20 DUP3 ADD SWAP1 POP PUSH2 0x14CD PUSH1 0x0 DUP4 ADD DUP5 PUSH2 0x14A9 JUMP JUMPDEST SWAP3 SWAP2 POP POP JUMP JUMPDEST PUSH2 0x14DC DUP2 PUSH2 0x13D7 JUMP JUMPDEST DUP3 MSTORE POP POP JUMP JUMPDEST PUSH1 0x0 PUSH1 0x20 DUP3 ADD SWAP1 POP PUSH2 0x14F7 PUSH1 0x0 DUP4 ADD DUP5 PUSH2 0x14D3 JUMP JUMPDEST SWAP3 SWAP2 POP POP JUMP JUMPDEST PUSH2 0x1506 DUP2 PUSH2 0x1497 JUMP JUMPDEST DUP2 EQ PUSH2 0x1511 JUMPI PUSH1 0x0 DUP1 REVERT JUMPDEST POP JUMP JUMPDEST PUSH1 0x0 DUP2 CALLDATALOAD SWAP1 POP PUSH2 0x1523 DUP2 PUSH2 0x14FD JUMP JUMPDEST SWAP3 SWAP2 POP POP JUMP JUMPDEST PUSH1 0x0 PUSH1 0x20 DUP3 DUP5 SUB SLT ISZERO PUSH2 0x153F JUMPI PUSH2 0x153E PUSH2 0x139C JUMP JUMPDEST JUMPDEST PUSH1 0x0 PUSH2 0x154D DUP5 DUP3 DUP6 ADD PUSH2 0x1514 JUMP JUMPDEST SWAP2 POP POP SWAP3 SWAP2 POP POP JUMP JUMPDEST PUSH1 0x0 DUP3 DUP3 MSTORE PUSH1 0x20 DUP3 ADD SWAP1 POP SWAP3 SWAP2 POP POP JUMP JUMPDEST PUSH32 0x536F75726365206D75737420626520746865206F7261636C65206F6620746865 PUSH1 0x0 DUP3 ADD MSTORE PUSH32 0x2072657175657374000000000000000000000000000000000000000000000000 PUSH1 0x20 DUP3 ADD MSTORE POP JUMP JUMPDEST PUSH1 0x0 PUSH2 0x15C3 PUSH1 0x28 DUP4 PUSH2 0x1556 JUMP JUMPDEST SWAP2 POP PUSH2 0x15CE DUP3 PUSH2 0x1567 JUMP JUMPDEST PUSH1 0x40 DUP3 ADD SWAP1 POP SWAP2 SWAP1 POP JUMP JUMPDEST PUSH1 0x0 PUSH1 0x20 DUP3 ADD SWAP1 POP DUP2 DUP2 SUB PUSH1 0x0 DUP4 ADD MSTORE PUSH2 0x15F2 DUP2 PUSH2 0x15B6 JUMP JUMPDEST SWAP1 POP SWAP2 SWAP1 POP JUMP JUMPDEST PUSH32 0x4D7573742062652070726F706F736564206F776E657200000000000000000000 PUSH1 0x0 DUP3 ADD MSTORE POP JUMP JUMPDEST PUSH1 0x0 PUSH2 0x162F PUSH1 0x16 DUP4 PUSH2 0x1556 JUMP JUMPDEST SWAP2 POP PUSH2 0x163A DUP3 PUSH2 0x15F9 JUMP JUMPDEST PUSH1 0x20 DUP3 ADD SWAP1 POP SWAP2 SWAP1 POP JUMP JUMPDEST PUSH1 0x0 PUSH1 0x20 DUP3 ADD SWAP1 POP DUP2 DUP2 SUB PUSH1 0x0 DUP4 ADD MSTORE PUSH2 0x165E DUP2 PUSH2 0x1622 JUMP JUMPDEST SWAP1 POP SWAP2 SWAP1 POP JUMP JUMPDEST PUSH1 0x0 DUP2 MLOAD SWAP1 POP PUSH2 0x1674 DUP2 PUSH2 0x13E1 JUMP JUMPDEST SWAP3 SWAP2 POP POP JUMP JUMPDEST PUSH1 0x0 PUSH1 0x20 DUP3 DUP5 SUB SLT ISZERO PUSH2 0x1690 JUMPI PUSH2 0x168F PUSH2 0x139C JUMP JUMPDEST JUMPDEST PUSH1 0x0 PUSH2 0x169E DUP5 DUP3 DUP6 ADD PUSH2 0x1665 JUMP JUMPDEST SWAP2 POP POP SWAP3 SWAP2 POP POP JUMP JUMPDEST PUSH1 0x0 PUSH1 0x40 DUP3 ADD SWAP1 POP PUSH2 0x16BC PUSH1 0x0 DUP4 ADD DUP6 PUSH2 0x14A9 JUMP JUMPDEST PUSH2 0x16C9 PUSH1 0x20 DUP4 ADD DUP5 PUSH2 0x14D3 JUMP JUMPDEST SWAP4 SWAP3 POP POP POP JUMP JUMPDEST PUSH1 0x0 DUP2 ISZERO ISZERO SWAP1 POP SWAP2 SWAP1 POP JUMP JUMPDEST PUSH2 0x16E5 DUP2 PUSH2 0x16D0 JUMP JUMPDEST DUP2 EQ PUSH2 0x16F0 JUMPI PUSH1 0x0 DUP1 REVERT JUMPDEST POP JUMP JUMPDEST PUSH1 0x0 DUP2 MLOAD SWAP1 POP PUSH2 0x1702 DUP2 PUSH2 0x16DC JUMP JUMPDEST SWAP3 SWAP2 POP POP JUMP JUMPDEST PUSH1 0x0 PUSH1 0x20 DUP3 DUP5 SUB SLT ISZERO PUSH2 0x171E JUMPI PUSH2 0x171D PUSH2 0x139C JUMP JUMPDEST JUMPDEST PUSH1 0x0 PUSH2 0x172C DUP5 DUP3 DUP6 ADD PUSH2 0x16F3 JUMP JUMPDEST SWAP2 POP POP SWAP3 SWAP2 POP POP JUMP JUMPDEST PUSH32 0x556E61626C6520746F207472616E736665720000000000000000000000000000 PUSH1 0x0 DUP3 ADD MSTORE POP JUMP JUMPDEST PUSH1 0x0 PUSH2 0x176B PUSH1 0x12 DUP4 PUSH2 0x1556 JUMP JUMPDEST SWAP2 POP PUSH2 0x1776 DUP3 PUSH2 0x1735 JUMP JUMPDEST PUSH1 0x20 DUP3 ADD SWAP1 POP SWAP2 SWAP1 POP JUMP JUMPDEST PUSH1 0x0 PUSH1 0x20 DUP3 ADD SWAP1 POP DUP2 DUP2 SUB PUSH1 0x0 DUP4 ADD MSTORE PUSH2 0x179A DUP2 PUSH2 0x175E JUMP JUMPDEST SWAP1 POP SWAP2 SWAP1 POP JUMP JUMPDEST PUSH32 0x4F6E6C792063616C6C61626C65206279206F776E657200000000000000000000 PUSH1 0x0 DUP3 ADD MSTORE POP JUMP JUMPDEST PUSH1 0x0 PUSH2 0x17D7 PUSH1 0x16 DUP4 PUSH2 0x1556 JUMP JUMPDEST SWAP2 POP PUSH2 0x17E2 DUP3 PUSH2 0x17A1 JUMP JUMPDEST PUSH1 0x20 DUP3 ADD SWAP1 POP SWAP2 SWAP1 POP JUMP JUMPDEST PUSH1 0x0 PUSH1 0x20 DUP3 ADD SWAP1 POP DUP2 DUP2 SUB PUSH1 0x0 DUP4 ADD MSTORE PUSH2 0x1806 DUP2 PUSH2 0x17CA JUMP JUMPDEST SWAP1 POP SWAP2 SWAP1 POP JUMP JUMPDEST PUSH32 0x43616E6E6F74207472616E7366657220746F2073656C66000000000000000000 PUSH1 0x0 DUP3 ADD MSTORE POP JUMP JUMPDEST PUSH1 0x0 PUSH2 0x1843 PUSH1 0x17 DUP4 PUSH2 0x1556 JUMP JUMPDEST SWAP2 POP PUSH2 0x184E DUP3 PUSH2 0x180D JUMP JUMPDEST PUSH1 0x20 DUP3 ADD SWAP1 POP SWAP2 SWAP1 POP JUMP JUMPDEST PUSH1 0x0 PUSH1 0x20 DUP3 ADD SWAP1 POP DUP2 DUP2 SUB PUSH1 0x0 DUP4 ADD MSTORE PUSH2 0x1872 DUP2 PUSH2 0x1836 JUMP JUMPDEST SWAP1 POP SWAP2 SWAP1 POP JUMP JUMPDEST PUSH1 0x0 DUP2 SWAP1 POP SWAP2 SWAP1 POP JUMP JUMPDEST PUSH32 0x4E487B7100000000000000000000000000000000000000000000000000000000 PUSH1 0x0 MSTORE PUSH1 0x11 PUSH1 0x4 MSTORE PUSH1 0x24 PUSH1 0x0 REVERT JUMPDEST PUSH1 0x0 PUSH2 0x18BD DUP3 PUSH2 0x1879 JUMP JUMPDEST SWAP2 POP PUSH2 0x18C8 DUP4 PUSH2 0x1879 JUMP JUMPDEST SWAP3 POP DUP3 PUSH32 0x8000000000000000000000000000000000000000000000000000000000000000 ADD DUP3 SLT PUSH1 0x0 DUP5 SLT ISZERO AND ISZERO PUSH2 0x1903 JUMPI PUSH2 0x1902 PUSH2 0x1883 JUMP JUMPDEST JUMPDEST DUP3 PUSH32 0x7FFFFFFFFFFFFFFFFFFFFFFFFFFFFFFFFFFFFFFFFFFFFFFFFFFFFFFFFFFFFFFF ADD DUP3 SGT PUSH1 0x0 DUP5 SLT AND ISZERO PUSH2 0x193B JUMPI PUSH2 0x193A PUSH2 0x1883 JUMP JUMPDEST JUMPDEST DUP3 DUP3 SUB SWAP1 POP SWAP3 SWAP2 POP POP JUMP JUMPDEST PUSH1 0x0 PUSH2 0x1951 DUP3 PUSH2 0x13D7 JUMP JUMPDEST SWAP2 POP PUSH2 0x195C DUP4 PUSH2 0x13D7 JUMP JUMPDEST SWAP3 POP DUP3 PUSH32 0xFFFFFFFFFFFFFFFFFFFFFFFFFFFFFFFFFFFFFFFFFFFFFFFFFFFFFFFFFFFFFFFF SUB DUP3 GT ISZERO PUSH2 0x1991 JUMPI PUSH2 0x1990 PUSH2 0x1883 JUMP JUMPDEST JUMPDEST DUP3 DUP3 ADD SWAP1 POP SWAP3 SWAP2 POP POP JUMP JUMPDEST PUSH1 0x0 PUSH32 0xFFFFFFFF00000000000000000000000000000000000000000000000000000000 DUP3 AND SWAP1 POP SWAP2 SWAP1 POP JUMP JUMPDEST PUSH2 0x19D1 DUP2 PUSH2 0x199C JUMP JUMPDEST DUP3 MSTORE POP POP JUMP JUMPDEST PUSH1 0x0 DUP2 MLOAD SWAP1 POP SWAP2 SWAP1 POP JUMP JUMPDEST PUSH1 0x0 DUP3 DUP3 MSTORE PUSH1 0x20 DUP3 ADD SWAP1 POP SWAP3 SWAP2 POP POP JUMP JUMPDEST PUSH1 0x0 JUMPDEST DUP4 DUP2 LT ISZERO PUSH2 0x1A11 JUMPI DUP1 DUP3 ADD MLOAD DUP2 DUP5 ADD MSTORE PUSH1 0x20 DUP2 ADD SWAP1 POP PUSH2 0x19F6 JUMP JUMPDEST DUP4 DUP2 GT ISZERO PUSH2 0x1A20 JUMPI PUSH1 0x0 DUP5 DUP5 ADD MSTORE JUMPDEST POP POP POP POP JUMP JUMPDEST PUSH1 0x0 PUSH1 0x1F NOT PUSH1 0x1F DUP4 ADD AND SWAP1 POP SWAP2 SWAP1 POP JUMP JUMPDEST PUSH1 0x0 PUSH2 0x1A42 DUP3 PUSH2 0x19D7 JUMP JUMPDEST PUSH2 0x1A4C DUP2 DUP6 PUSH2 0x19E2 JUMP JUMPDEST SWAP4 POP PUSH2 0x1A5C DUP2 DUP6 PUSH1 0x20 DUP7 ADD PUSH2 0x19F3 JUMP JUMPDEST PUSH2 0x1A65 DUP2 PUSH2 0x1A26 JUMP JUMPDEST DUP5 ADD SWAP2 POP POP SWAP3 SWAP2 POP POP JUMP JUMPDEST PUSH1 0x0 PUSH2 0x100 DUP3 ADD SWAP1 POP PUSH2 0x1A86 PUSH1 0x0 DUP4 ADD DUP12 PUSH2 0x14A9 JUMP JUMPDEST PUSH2 0x1A93 PUSH1 0x20 DUP4 ADD DUP11 PUSH2 0x14D3 JUMP JUMPDEST PUSH2 0x1AA0 PUSH1 0x40 DUP4 ADD DUP10 PUSH2 0x144D JUMP JUMPDEST PUSH2 0x1AAD PUSH1 0x60 DUP4 ADD DUP9 PUSH2 0x14A9 JUMP JUMPDEST PUSH2 0x1ABA PUSH1 0x80 DUP4 ADD DUP8 PUSH2 0x19C8 JUMP JUMPDEST PUSH2 0x1AC7 PUSH1 0xA0 DUP4 ADD DUP7 PUSH2 0x14D3 JUMP JUMPDEST PUSH2 0x1AD4 PUSH1 0xC0 DUP4 ADD DUP6 PUSH2 0x14D3 JUMP JUMPDEST DUP2 DUP2 SUB PUSH1 0xE0 DUP4 ADD MSTORE PUSH2 0x1AE6 DUP2 DUP5 PUSH2 0x1A37 JUMP JUMPDEST SWAP1 POP SWAP10 SWAP9 POP POP POP POP POP POP POP POP POP JUMP JUMPDEST PUSH32 0x4E487B7100000000000000000000000000000000000000000000000000000000 PUSH1 0x0 MSTORE PUSH1 0x12 PUSH1 0x4 MSTORE PUSH1 0x24 PUSH1 0x0 REVERT JUMPDEST PUSH1 0x0 PUSH2 0x1B2F DUP3 PUSH2 0x13D7 JUMP JUMPDEST SWAP2 POP PUSH2 0x1B3A DUP4 PUSH2 0x13D7 JUMP JUMPDEST SWAP3 POP DUP3 PUSH2 0x1B4A JUMPI PUSH2 0x1B49 PUSH2 0x1AF5 JUMP JUMPDEST JUMPDEST DUP3 DUP3 MOD SWAP1 POP SWAP3 SWAP2 POP POP JUMP JUMPDEST PUSH1 0x0 PUSH2 0x1B60 DUP3 PUSH2 0x13D7 JUMP JUMPDEST SWAP2 POP PUSH2 0x1B6B DUP4 PUSH2 0x13D7 JUMP JUMPDEST SWAP3 POP DUP3 DUP3 LT ISZERO PUSH2 0x1B7E JUMPI PUSH2 0x1B7D PUSH2 0x1883 JUMP JUMPDEST JUMPDEST DUP3 DUP3 SUB SWAP1 POP SWAP3 SWAP2 POP POP JUMP JUMPDEST PUSH1 0x0 DUP2 SWAP1 POP SWAP2 SWAP1 POP JUMP JUMPDEST PUSH1 0x0 PUSH2 0x1BAE PUSH2 0x1BA9 PUSH2 0x1BA4 DUP5 PUSH2 0x1477 JUMP JUMPDEST PUSH2 0x1B89 JUMP JUMPDEST PUSH2 0x1477 JUMP JUMPDEST SWAP1 POP SWAP2 SWAP1 POP JUMP JUMPDEST PUSH1 0x0 PUSH2 0x1BC0 DUP3 PUSH2 0x1B93 JUMP JUMPDEST SWAP1 POP SWAP2 SWAP1 POP JUMP JUMPDEST PUSH1 0x0 PUSH2 0x1BD2 DUP3 PUSH2 0x1BB5 JUMP JUMPDEST SWAP1 POP SWAP2 SWAP1 POP JUMP JUMPDEST PUSH1 0x0 DUP2 PUSH1 0x60 SHL SWAP1 POP SWAP2 SWAP1 POP JUMP JUMPDEST PUSH1 0x0 PUSH2 0x1BF1 DUP3 PUSH2 0x1BD9 JUMP JUMPDEST SWAP1 POP SWAP2 SWAP1 POP JUMP JUMPDEST PUSH1 0x0 PUSH2 0x1C03 DUP3 PUSH2 0x1BE6 JUMP JUMPDEST SWAP1 POP SWAP2 SWAP1 POP JUMP JUMPDEST PUSH2 0x1C1B PUSH2 0x1C16 DUP3 PUSH2 0x1BC7 JUMP JUMPDEST PUSH2 0x1BF8 JUMP JUMPDEST DUP3 MSTORE POP POP JUMP JUMPDEST PUSH1 0x0 DUP2 SWAP1 POP SWAP2 SWAP1 POP JUMP JUMPDEST PUSH2 0x1C3C PUSH2 0x1C37 DUP3 PUSH2 0x13D7 JUMP JUMPDEST PUSH2 0x1C21 JUMP JUMPDEST DUP3 MSTORE POP POP JUMP JUMPDEST PUSH1 0x0 PUSH2 0x1C4E DUP3 DUP6 PUSH2 0x1C0A JUMP JUMPDEST PUSH1 0x14 DUP3 ADD SWAP2 POP PUSH2 0x1C5E DUP3 DUP5 PUSH2 0x1C2B JUMP JUMPDEST PUSH1 0x20 DUP3 ADD SWAP2 POP DUP2 SWAP1 POP SWAP4 SWAP3 POP POP POP JUMP JUMPDEST PUSH1 0x0 PUSH1 0x60 DUP3 ADD SWAP1 POP PUSH2 0x1C83 PUSH1 0x0 DUP4 ADD DUP7 PUSH2 0x14A9 JUMP JUMPDEST PUSH2 0x1C90 PUSH1 0x20 DUP4 ADD DUP6 PUSH2 0x14D3 JUMP JUMPDEST DUP2 DUP2 SUB PUSH1 0x40 DUP4 ADD MSTORE PUSH2 0x1CA2 DUP2 DUP5 PUSH2 0x1A37 JUMP JUMPDEST SWAP1 POP SWAP5 SWAP4 POP POP POP POP JUMP JUMPDEST PUSH32 0x756E61626C6520746F207472616E73666572416E6443616C6C20746F206F7261 PUSH1 0x0 DUP3 ADD MSTORE PUSH32 0x636C650000000000000000000000000000000000000000000000000000000000 PUSH1 0x20 DUP3 ADD MSTORE POP JUMP JUMPDEST PUSH1 0x0 PUSH2 0x1D08 PUSH1 0x23 DUP4 PUSH2 0x1556 JUMP JUMPDEST SWAP2 POP PUSH2 0x1D13 DUP3 PUSH2 0x1CAC JUMP JUMPDEST PUSH1 0x40 DUP3 ADD SWAP1 POP SWAP2 SWAP1 POP JUMP JUMPDEST PUSH1 0x0 PUSH1 0x20 DUP3 ADD SWAP1 POP DUP2 DUP2 SUB PUSH1 0x0 DUP4 ADD MSTORE PUSH2 0x1D37 DUP2 PUSH2 0x1CFB JUMP JUMPDEST SWAP1 POP SWAP2 SWAP1 POP JUMP JUMPDEST PUSH1 0x0 PUSH2 0x1D49 DUP3 PUSH2 0x13D7 JUMP JUMPDEST SWAP2 POP PUSH2 0x1D54 DUP4 PUSH2 0x13D7 JUMP JUMPDEST SWAP3 POP DUP2 PUSH32 0xFFFFFFFFFFFFFFFFFFFFFFFFFFFFFFFFFFFFFFFFFFFFFFFFFFFFFFFFFFFFFFFF DIV DUP4 GT DUP3 ISZERO ISZERO AND ISZERO PUSH2 0x1D8D JUMPI PUSH2 0x1D8C PUSH2 0x1883 JUMP JUMPDEST JUMPDEST DUP3 DUP3 MUL SWAP1 POP SWAP3 SWAP2 POP POP JUMP JUMPDEST PUSH1 0x0 DUP2 PUSH1 0x1 SHR SWAP1 POP SWAP2 SWAP1 POP JUMP JUMPDEST PUSH1 0x0 DUP1 DUP3 SWAP2 POP DUP4 SWAP1 POP JUMPDEST PUSH1 0x1 DUP6 GT ISZERO PUSH2 0x1DEF JUMPI DUP1 DUP7 DIV DUP2 GT ISZERO PUSH2 0x1DCB JUMPI PUSH2 0x1DCA PUSH2 0x1883 JUMP JUMPDEST JUMPDEST PUSH1 0x1 DUP6 AND ISZERO PUSH2 0x1DDA JUMPI DUP1 DUP3 MUL SWAP2 POP JUMPDEST DUP1 DUP2 MUL SWAP1 POP PUSH2 0x1DE8 DUP6 PUSH2 0x1D98 JUMP JUMPDEST SWAP5 POP PUSH2 0x1DAF JUMP JUMPDEST SWAP5 POP SWAP5 SWAP3 POP POP POP JUMP JUMPDEST PUSH1 0x0 DUP3 PUSH2 0x1E08 JUMPI PUSH1 0x1 SWAP1 POP PUSH2 0x1EC4 JUMP JUMPDEST DUP2 PUSH2 0x1E16 JUMPI PUSH1 0x0 SWAP1 POP PUSH2 0x1EC4 JUMP JUMPDEST DUP2 PUSH1 0x1 DUP2 EQ PUSH2 0x1E2C JUMPI PUSH1 0x2 DUP2 EQ PUSH2 0x1E36 JUMPI PUSH2 0x1E65 JUMP JUMPDEST PUSH1 0x1 SWAP2 POP POP PUSH2 0x1EC4 JUMP JUMPDEST PUSH1 0xFF DUP5 GT ISZERO PUSH2 0x1E48 JUMPI PUSH2 0x1E47 PUSH2 0x1883 JUMP JUMPDEST JUMPDEST DUP4 PUSH1 0x2 EXP SWAP2 POP DUP5 DUP3 GT ISZERO PUSH2 0x1E5F JUMPI PUSH2 0x1E5E PUSH2 0x1883 JUMP JUMPDEST JUMPDEST POP PUSH2 0x1EC4 JUMP JUMPDEST POP PUSH1 0x20 DUP4 LT PUSH2 0x133 DUP4 LT AND PUSH1 0x4E DUP5 LT PUSH1 0xB DUP5 LT AND OR ISZERO PUSH2 0x1E9A JUMPI DUP3 DUP3 EXP SWAP1 POP DUP4 DUP2 GT ISZERO PUSH2 0x1E95 JUMPI PUSH2 0x1E94 PUSH2 0x1883 JUMP JUMPDEST JUMPDEST PUSH2 0x1EC4 JUMP JUMPDEST PUSH2 0x1EA7 DUP5 DUP5 DUP5 PUSH1 0x1 PUSH2 0x1DA5 JUMP JUMPDEST SWAP3 POP SWAP1 POP DUP2 DUP5 DIV DUP2 GT ISZERO PUSH2 0x1EBE JUMPI PUSH2 0x1EBD PUSH2 0x1883 JUMP JUMPDEST JUMPDEST DUP2 DUP2 MUL SWAP1 POP JUMPDEST SWAP4 SWAP3 POP POP POP JUMP JUMPDEST PUSH1 0x0 PUSH2 0x1ED6 DUP3 PUSH2 0x13D7 JUMP JUMPDEST SWAP2 POP PUSH2 0x1EE1 DUP4 PUSH2 0x13D7 JUMP JUMPDEST SWAP3 POP PUSH2 0x1F0E PUSH32 0xFFFFFFFFFFFFFFFFFFFFFFFFFFFFFFFFFFFFFFFFFFFFFFFFFFFFFFFFFFFFFFFF DUP5 DUP5 PUSH2 0x1DF8 JUMP JUMPDEST SWAP1 POP SWAP3 SWAP2 POP POP JUMP INVALID PUSH9 0x747470733A2F2F6D69 PUSH15 0x2D6170692E63727970746F636F6D70 PUSH2 0x7265 0x2E PUSH4 0x6F6D2F64 PUSH2 0x7461 0x2F PUSH17 0x726963656D756C746966756C6C3F667379 PUSH14 0x733D455448267473796D733D5553 DIFFICULTY LOG2 PUSH5 0x6970667358 0x22 SLT KECCAK256 PUSH3 0x7BA8C DUP15 0xA6 DUP11 PUSH17 0x2F416D78F027708AE5D19ED4561E8760F 0x5D INVALID 0x2E BALANCE 0x49 0x26 DUP15 PUSH5 0x736F6C6343 STOP ADDMOD MULMOD STOP CALLER "},"methodIdentifiers":{"acceptOwnership()":"79ba5097","fulfill(bytes32,uint256)":"4357855e","owner()":"8da5cb5b","requestVolumeData()":"6021abac","transferOwnership(address)":"f2fde38b","volume()":"c618a1e4","withdrawLink()":"8dc654a2"}}}}}